S01700006B6D436F6C6F724465746563746F722E73726563FC
S11300000C9476000C94D3090C940E0A0C9493006F
S11300100C94C6250C9493000C9493000C949300B8
S11300200C9493000C94DD2B0C9493000C9493008B
S11300300C9493000C94311F0C945E1F0C94930049
S11300400C9493000C9493000C9493000C949300E0
S11300500C949300A507AA07AF07B407B907BE0716
S1130060C307C80776087B08800885088A088F08B4
S1130070940899084D6561737572652053746172B3
S11300807400776869746500626C61636B00626C0C
S1130090756500677265656E007265640079656CEC
S11300A06C6F770062726F776E006F72616E676556
S11300B000433A00776869746500626C61636B00A1
S11300C0626C756500677265656E007265640079BF
S11300D0656C6C6F770062726F776E006F72616E21
S11300E06765000D0A0030780030000011241FBE3F
S11300F0CFE5D8E0DEBFCDBF11E0A0E6B0E0E0E898
S1130100F4E602C005900D92A831B107D9F721E0B9
S1130110A8E1B1E001C01D92A73FB207E1F70E9438
S11301209F160C943E320C940000AF92BF92CF9273
S1130130DF92EF92FF920F931F93CF93DF93CDB78C
S1130140DEB72C970FB6F894DEBF0FBECDBF0E946A
S113015064060E9480068AE090E00E94E7200E94E4
S1130160371880E00E94E10160E875E280E090E0E9
S11301700E94E61B40E062E080E10E94490A0E947E
S11301806B0A0E94A81260E080E00E9412138BE6C2
S113019090E00E94B2130E948B1F0E94FE1FA22EA9
S11301A0B32EC42ED52EE62EF72E082F192F2A2D66
S11301B03B2D4C2D5D2D6E2D7F2D802F912F2F8368
S11301C0388749875A876B877C874F81588569852B
S11301D07A858B859C850E944E020E946A20A22EFD
S11301E0B32EC42ED52EE62EF72E082F192F2A2D26
S11301F03B2D4C2D5D2D6E2D7F2D802F912F29832E
S11302003A834B835C836D837E8349815A816B81FE
S11302107C818D819E810E946F020E94D620182FBE
S11302200E94DB1F612F0E94900249E651E067E0C3
S113023070E080E00E94F72164EF71E080E00E94AA
S1130240A1224CE851E060E070E081E00E94F721D7
S113025064E170E081E00E94A12260E070E08EEA37
S113026091E00E94EC18789400002C960FB6F89454
S1130270DEBF0FBECDBFDF91CF911F910F91FF90D5
S1130280EF90DF90CF90BF90AF900895CF93DF931E
S1130290CDB7DEB70E9461210E9412180E943B0272
S11302A0882399F00E94440286E00E949A0661E045
S11302B080E00E9412138CE790E00E94B21384E75E
S11302C090E00E94301E0E9488180000DF91CF91B8
S11302D00895CF93DF9300D000D000D0CDB7DEB720
S11302E09C838B837E836D838B819C819A8389839A
S11302F089810E949A068D819E8124EF31E0FC0160
S113030031832083000026960FB6F894DEBF0FBE1B
S1130310CDBFDF91CF910895CF93DF9300D000D06C
S1130320CDB7DEB79A8389837C836B830E941E02D8
S11303300E94C401982F81E08927882339F08B819A
S11303409C8124E130E0FC013183208300000F9084
S11303500F900F900F90DF91CF910895CF93DF937B
S113036000D0CDB7DEB79A8389830E94C4060E9469
S1130370DF0764E170E081E00E94A12200000F9099
S11303800F90DF91CF910895CF93DF93CDB7DEB770
S113039083E390E0FC018081882F90E02091180194
S11303A0222F30E002C0959587952A95E2F7817057
S11303B0992721E0892B09F020E0822FDF91CF914A
S11303C00895CF93DF931F92CDB7DEB789838981D8
S11303D0809318011092190110921A0184E390E09D
S11303E024E330E0F9012081622F20911801422F8B
S11303F050E021E030E002C0220F331F4A95E2F7BB
S113040020952623FC01208385E390E025E330E05A
S1130410F9012081622F20911801422F50E021E040
S113042030E002C0220F331F4A95E2F7262BFC016D
S1130430208300000F90DF91CF910895CF93DF9335
S11304401F92CDB7DEB70E94C40189838091190140
S11304509981981759F0998181E08927882319F0A7
S113046081E080931A0189818093190100000F9023
S1130470DF91CF910895CF93DF93CDB7DEB780910D
S11304801A01DF91CF910895CF93DF93CDB7DEB7F3
S113049010921A010000DF91CF910895CF93DF935A
S11304A000D000D000D0CDB7DEB749835A836B8328
S11304B07C838D839E8326E0CE010196FC01ABE113
S11304C0B1E001900D922A95E1F7000026960FB64F
S11304D0F894DEBF0FBECDBFDF91CF910895CF93C7
S11304E0DF9300D000D000D0CDB7DEB749835A8364
S11304F06B837C838D839E8326E0CE010196FC0171
S1130500A1E2B1E001900D922A95E1F70000269650
S11305100FB6F894DEBF0FBECDBFDF91CF91089523
S1130520CF93DF9300D01F92CDB7DEB79A83898330
S11305306B8389819A8190932801809327018B8111
S11305408093290100000F900F900F90DF91CF91BD
S11305500895EF92FF920F931F93CF93DF93CDB73C
S1130560DEB72A970FB6F894DEBF0FBECDBF9E83C9
S11305708D8378876F835A8749878D819E81CC01CB
S1130580A0E0B0E089839A83AB83BC838F81988594
S1130590CC01A0E0B0E029813A814B815C817901F2
S11305A08A01E81AF90A0A0B1B0BD801C7018983CF
S11305B09A83AB83BC8329813A814B815C8180EE31
S11305C090E0DC010E94332EDC01CB0189839A8305
S11305D0AB83BC8329853A858F8198858901081B63
S11305E0190BC8019C0140E050E089819A81AB81DC
S11305F0BC81BC01CD010E94FF2DDA01C9018983B0
S11306009A83AB83BC8389819A81AB81BC814096F8
S1130610A11DB11D89839A83AB83BC8389819A818F
S1130620AB81BC81BB231CF480E090E0DC018983B6
S11306309A83AB83BC8389819A81AB81BC818F3FD0
S11306409105A105B10529F024F08FEF90E0A0E019
S1130650B0E089839A83AB83BC8389812A960FB6E1
S1130660F894DEBF0FBECDBFDF91CF911F910F91E4
S1130670FF90EF900895CF93DF9300D000D0CDB7D3
S1130680DEB769837A838B839C8329813A814B818A
S11306905C8189819A81AB81BC81BC01CD010E94BE
S11306A0A52DDC01CB01BC01CD010F900F900F9063
S11306B00F90DF91CF910895CF93DF93CDB7DEB73D
S11306C02A970FB6F894DEBF0FBECDBF6D837E832D
S11306D08F83288739874A8719821A821B821C8252
S11306E08D81282F30E08885882F90E0A901481B50
S11306F0590BCA0199231CF4919581959109092EEE
S1130700000CAA0BBB0BBC01CD010E943B03DC0116
S1130710CB019C01AD0189819A81AB81BC81820F9F
S1130720931FA41FB51F89839A83AB83BC838E81D7
S1130730282F30E08985882F90E0A901481B590BA8
S1130740CA0199231CF4919581959109092E000CF5
S1130750AA0BBB0BBC01CD010E943B03DC01CB0106
S11307609C01AD0189819A81AB81BC81820F931F69
S1130770A41FB51F89839A83AB83BC838F81282FE1
S113078030E08A85882F90E0A901481B590BCA01E3
S113079099231CF4919581959109092E000CAA0BBB
S11307A0BB0BBC01CD010E943B03DC01CB019C01CE
S11307B0AD0189819A81AB81BC81820F931FA41FF3
S11307C0B51F89839A83AB83BC8389819A81AB816A
S11307D0BC81BC01CD012A960FB6F894DEBF0FBED2
S11307E0CDBFDF91CF910895CF93DF93CDB7DEB71F
S11307F02D970FB6F894DEBF0FBECDBF6B877C87F5
S11308008D878FEF9FEFDC0189839A83AB83BC8351
S11308101F82188619861A861D821E8239C040914D
S11308202701509128018E81282F30E0C901880FBB
S1130830991F820F931F840F951FFC012081318122
S113084042818B859C85AD85BC018A2F0E945C0307
S1130850DC01CB018F839887A987BA872F813885DC
S113086049855A8589819A81AB81BC8128173907CA
S11308704A075B0750F48F819885A985BA858983D7
S11308809A83AB83BC838E818D838E818F5F8E83AD
S1130890809129019E81981710F28D812D960FB6B3
S11308A0F894DEBF0FBECDBFDF91CF910895CF93F3
S11308B0DF93CDB7DEB729970FB6F894DEBF0FBE2E
S11308C0CDBF4C835D836E837F83888799874091F6
S11308D021015091220120911B0130911C018C8136
S11308E09D81B9010E94A9028983409123015091FD
S11308F0240120911D0130911E018E819F81B90137
S11309000E94A9028A8340912501509126012091D9
S11309101F013091200188859985B9010E94A9029F
S11309208B8389819A81AB81BC018A2F29960FB66A
S1130930F894DEBF0FBECDBFDF91CF910895CF9362
S1130940DF93CDB7DEB762970FB6F894DEBF0FBE64
S1130950CDBF688B798B8A8B8989882351F48A89E6
S11309608D878A898E878A898F878D859E85AF85B5
S1130970CBC08889882F90E09A8389838989882FBE
S113098090E09C838B838A89882F90E09E838D835B
S113099089819A819C01A3E8BEEB0E94242E96953E
S11309A08795929582958F7089279F7089278F8369
S11309B08F81882F90E045EDBC0146039001479F4D
S11309C0300D112489819A81280F391FC901880F9C
S11309D0991F820F931F880F991F998788872FEF7C
S11309E030E08B819C81A901481B590B2D813E81EC
S11309F0429FC001439F900D529F900D1124892F57
S1130A0099278A874B815C8128853985429FC0015B
S1130A10439F900D529F900D1124892F99272FEFFA
S1130A2030E0A901481B590B2D813E81429FC00132
S1130A30439F900D529F900D1124892F99278B87E6
S1130A402FEF30E088859985A901481B590B2B812C
S1130A503C81429FC001439F900D529F900D1124F1
S1130A60892F99272FEF30E0A901481B590B2D81BD
S1130A703E81429FC001439F900D529F900D1124CF
S1130A80892F99278C878F81882F90E08230910558
S1130A90E1F0833091052CF4009749F0019771F04F
S1130AA029C083309105C1F00497E9F023C08D81FA
S1130AB08D878C858E878A858F8723C08B858D87CC
S1130AC08D818E878A858F871CC08A858D878D81CD
S1130AD08E878C858F8715C08A858D878B858E87B9
S1130AE08D818F870EC08C858D878A858E878D81B9
S1130AF08F8707C08D818D878A858E878B858F87A9
S1130B0000008D859E85AF85BC018A2F62960FB645
S1130B10F894DEBF0FBECDBFDF91CF910895CF9380
S1130B20DF93CDB7DEB728970FB6F894DEBF0FBEBC
S1130B30CDBF6E837F8388879E818F81981730F421
S1130B4088859E81981738F4892F05C088859F81F0
S1130B50981708F4892F89839E818F81891730F42F
S1130B6088859E81891738F4892F05C088859F81DF
S1130B70891708F4892F8A838A818D838D8188233C
S1130B8031F41B821C828B819C81AD8192C08A814D
S1130B90282F30E08981882F90E0A901481B590B48
S1130BA0CA019C01990F440B550B8FEF90E0DC01B7
S1130BB00E94332EDC01CB012D81222F30E040E056
S1130BC050E0BC01CD010E94FF2DDA01C9018C83E4
S1130BD08C81882329F41B828B819C81AD8169C01F
S1130BE09E818A819817F9F48F81282F30E08885B7
S1130BF0882F90E0A901481B590BCA012BE2289FBA
S1130C00A001299F500D11248A81282F30E0898169
S1130C10882F90E0281B390BCA01B9010E94C92D05
S1130C20CB018B8343C09F818A81981701F5888506
S1130C30282F30E08E81882F90E0A901481B590BA2
S1130C40CA012BE2289FA001299F500D11248A81FB
S1130C50282F30E08981882F90E0281B390BCA01A6
S1130C60B9010E94C92DCB018B5A8B831FC08E8181
S1130C70282F30E08F81882F90E0A901481B590B61
S1130C80CA012BE2289FA001299F500D11248A81BB
S1130C90282F30E08981882F90E0281B390BCA0166
S1130CA0B9010E94C92DCB0185558B838B819C8111
S1130CB0AD81BC018A2F28960FB6F894DEBF0FBE13
S1130CC0CDBFDF91CF910895CF93DF93CDB7DEB73A
S1130CD08BE390E02FEFFC01208388E390E02FEF7B
S1130CE0FC01208385E390E02FEFFC01208382E365
S1130CF090E02FEFFC0120830000DF91CF91089555
S1130D00CF93DF93CDB7DEB784E390E024E330E004
S1130D10F90120812064FC01208384E390E024E332
S1130D2030E0F90120812068FC0120830000DF917C
S1130D30CF910895CF93DF931F92CDB7DEB7898308
S1130D408981882F90E08630910519F0079761F02A
S1130D5016C085E390E025E330E0F901308120E41A
S1130D602327FC0120830BC085E390E025E330E0DA
S1130D70F901308120E82327FC01208300000000D2
S1130D800F90DF91CF910895AF92BF92CF92DF92EF
S1130D90EF92FF920F931F93CF93DF93CDB7DEB7FC
S1130DA0E5970FB6F894DEBF0FBECDBF0E94A11821
S1130DB0A22EB32EC42ED52EE62EF72E082F192FD1
S1130DC02A2D3B2D4C2D5D2D6E2D7F2D802F912FA7
S1130DD02A833B834C835D836E837F834A815B815B
S1130DE06C817D818E819F810E945704A82FCB0145
S1130DF088879987AA8788859985AA85BC018A2FBF
S1130E000E948F05A82FCB018B879C87AD8788858F
S1130E109985AA85BC018A2F0E94F40389834E8197
S1130E205F812C813D818A819B81652F6F934F93D4
S1130E30432F4F932F93292F2F938F938AE890E07A
S1130E40892F8F938AE890E08F93CE010E96292FF5
S1130E502F938F930E94442F8DB79EB70A960FB697
S1130E60F894DEBF0FBECDBFCE010E960E94B81D12
S1130E708A85482F50E08985282F30E08885882F7F
S1130E8090E0652F6F934F93432F4F932F93292F08
S1130E902F938F9386EA90E0892F8F9386EA90E0D0
S1130EA08F93CE010E96292F2F938F930E94442F58
S1130EB0EDB7FEB73A960FB6F894DEBF0FBECDBFBE
S1130EC0CE010E960E94B81D8D85482F50E08B856B
S1130ED0282F30E08C85882F90E0652F6F934F93F7
S1130EE0432F4F932F93292F2F938F9383EC90E0CD
S1130EF0892F8F9383EC90E08F93CE010E96292F48
S1130F002F938F930E94442F8DB79EB70A960FB6E6
S1130F10F894DEBF0FBECDBFCE010E960E94B81D61
S1130F208981882F90E0092E000CAA0BBB0B40E0AE
S1130F3050E027E030E0841B950B2817390768F14F
S1130F40865D9F4FFC010C941E2E82E890E00E9467
S1130F50301E23C088E890E00E94301E1EC08EE838
S1130F6090E00E94301E19C083E990E00E94301E78
S1130F7014C089E990E00E94301E0FC08DE990E012
S1130F800E94301E0AC084EA90E00E94301E05C010
S1130F908AEA90E00E94301E00000000E5960FB639
S1130FA0F894DEBF0FBECDBFDF91CF911F910F919B
S1130FB0FF90EF90DF90CF90BF90AF900895AF92E5
S1130FC0BF92CF92DF92EF92FF920F931F93CF9332
S1130FD0DF93CDB7DEB7E2970FB6F894DEBF0FBE4E
S1130FE0CDBF0E94A118A22EB32EC42ED52EE62E5C
S1130FF0F72E082F192F2A2D3B2D4C2D5D2D6E2DEC
S11310007F2D802F912F2A833B834C835D836E83B6
S11310107F834A815B816C817D818E819F810E9467
S11310205704A82FCB0188879987AA878885998533
S1131030AA85BC018A2F0E94F40389838A85482FDC
S113104050E08985282F30E08885882F90E0652F2F
S11310506F934F93432F4F932F93292F2F938F9356
S11310608FED90E0892F8F938FED90E08F93CE01D9
S11310700B96292F2F938F930E94442F8DB79EB7E1
S11310800A960FB6F894DEBF0FBECDBFCE010B9605
S11310900E94B81D60E080E00E941213CE010B96FE
S11310A00E94B21361E080E00E94121381EB90E091
S11310B00E94DC138981805D0E941E1480E20E94DC
S11310C01E148981882F90E0092E000CAA0BBB0BFB
S11310D040E050E027E030E0841B950B28173907E7
S11310E068F18E5C9F4FFC010C941E2E84EB90E003
S11310F00E94DC1323C08AEB90E00E94DC131EC024
S113110080EC90E00E94DC1319C085EC90E00E9412
S1131110DC1314C08BEC90E00E94DC130FC08FEC46
S113112090E00E94DC130AC086ED90E00E94DC137C
S113113005C08CED90E00E94DC1300000E948F1328
S11311400000E2960FB6F894DEBF0FBECDBFDF916C
S1131150CF911F910F91FF90EF90DF90CF90BF90B0
S1131160AF9008950F931F93CF93DF93CDB7DEB75E
S113117027970FB6F894DEBF0FBECDBF89836A836D
S11311804B833D832C831F830E838981882F90E0BA
S1131190009721F0019709F46AC0D2C08C819D8127
S11311A090932B0180932A0181E390E021E330E0C6
S11311B0F90120812B7FFC0120838B81882351F04E
S11311C082E390E022E330E0F90120812460FC0115
S11311D0208309C082E390E022E330E0F90120811A
S11311E02B7FFC01208385E590E025E530E0F901C3
S11311F020812C7FFC0120838A81882F90E082301B
S1131200910579F083309105B1F00197F1F485E50A
S113121090E025E530E0F90120812160FC01208384
S11312201CC085E590E025E530E0F90120812260CD
S1131230FC01208312C085E590E025E530E0F9014A
S113124020812360FC01208308C085E590E025E52A
S113125030E0F9012081FC0120838BE590E02BE54F
S113126030E0F90120812064FC01208369C08C8175
S11312709D8190932D0180932C0181E390E021E3E3
S113128030E0F9012081277FFC0120838B818823B2
S113129051F082E390E022E330E0F90120812860FC
S11312A0FC01208309C082E390E022E330E0F901ED
S11312B02081277FFC01208385E590E025E530E04F
S11312C0F9012081237FFC0120838A81882F90E00B
S11312D08230910579F083309105B1F00197F1F4F2
S11312E085E590E025E530E0F90120812460FC01EA
S11312F020831CC085E590E025E530E0F9012081DC
S11313002860FC01208312C085E590E025E530E0EB
S1131310F90120812C60FC01208308C085E590E060
S113132025E530E0F9012081FC0120838BE590E084
S11313302BE530E0F90120812064FC0120830000CA
S1131340000027960FB6F894DEBF0FBECDBFDF9125
S1131350CF911F910F910895CF93DF931F92CDB733
S1131360DEB789838981882F90E0009719F001976F
S113137059F014C08BE590E02BE530E0F9012081B1
S11313802F7BFC0120830AC08BE590E02BE530E045
S1131390F90120812F77FC012083000000000F90C9
S11313A0DF91CF9108951F920F9200905F000F92EA
S11313B011242F933F934F935F936F937F938F9356
S11313C09F93AF93BF93EF93FF93CF93DF93CDB7E7
S11313D0DEB780912A0190912B01892B51F0209145
S11313E02A0130912B0180912E0190912F01F90156
S11313F009950000DF91CF91FF91EF91BF91AF91DB
S11314009F918F917F916F915F914F913F912F9118
S11314100F9000925F000F901F9018951F920F92EB
S113142000905F000F9211242F933F934F935F938B
S11314306F937F938F939F93AF93BF93EF93FF9398
S1131440CF93DF93CDB7DEB780912C0190912D011E
S1131450892B51F020912C0130912D018091300184
S113146090913101F90109950000DF91CF91FF912D
S1131470EF91BF91AF919F918F917F916F915F9108
S11314804F913F912F910F9000925F000F901F900A
S11314901895CF93DF9300D01F92CDB7DEB7898321
S11314A06A834B838981809335018A8180933601D5
S11314B08B818093370180E8809338011092320148
S11314C0109233011092340100000F900F900F908E
S11314D0DF91CF9108950F931F93CF93DF93CDB7EF
S11314E0DEB7CE58D1090FB6F894DEBF0FBECDBF1C
S11314F08AE390E02FEFFC0120838BE390E0FC0172
S113150010821092320180913601823028F080914D
S1131510320188608093320180913701882349F039
S113152080913601813029F4809132018460809366
S1131530320180E090E0A8E4B2E489839A83AB832B
S1131540BC838E010B571F4F2DEC3CEC4CE255E451
S113155069817A818B819C810E94382DDC01CB01C9
S1131560F80180839183A283B383CE018B579F4F6D
S113157020E030E040E85FE3FC016081718182811A
S113158093810E94182C88234CF4CE0187579F4FD7
S113159021E030E0FC013183208369C0CE018B5708
S11315A09F4F20E03FEF4FE757E4FC0160817181DA
S11315B0828193810E94332D18160CF046C020E0DE
S11315C030E040E251E469817A818B819C810E9400
S11315D0382DDC01CB018E0107571F4FBC01CD0113
S11315E00E948F2CDC01CB01F8019183808324C0FD
S11315F0CE0185579F4F24E131E0FC0131832083E4
S1131600CE0185579F4FFC01808191810197F1F7AD
S11316109E0125573F4FF90191838083CE0187575F
S11316209F4F9E0127573F4FF9012081318121505F
S11316303109FC0131832083CE0187579F4FFC0180
S113164080819181892BA1F62CC08E0107571F4FF1
S1131650CE018B579F4FFC01608171818281938100
S11316600E948F2CDC01CB01F80191838083CE0191
S113167083579F4F9E0127573F4FF90120813181A6
S1131680FC0131832083CE0183579F4FFC0180816D
S113169091810197F1F79E0123573F4FF9019183FF
S11316A080831092380180E00E947D1680E090E0F3
S11316B0AAE7B4E48D839E83AF83B8878E0107596C
S11316C01F4F2AEF3DEE4BE650E46D817E818F8102
S11316D098850E94382DDC01CB01F8018083918329
S11316E0A283B3838E0103591F4F2CE732EF40E3EB
S11316F050E46D817E818F8198850E94382DDC01B4
S1131700CB01F80180839183A283B383CE018759EF
S11317109F4F20E030E040E85FE3FC01608171818D
S1131720828193810E94182C88233CF4CE018F5827
S11317309F4F21E0FC0120832CC1CE0183599F4F90
S113174020E03FEF4FE757E4FC0160817181828123
S113175093810E94332D18160CF0CDC020E030E0A8
S11317604AE754E46D817E818F8198850E941D2C07
S1131770DC01CB019E012E583F4FF90180839183F8
S1131780A283B3838E010A581F4FCE018E589F4FF8
S11317902DEC3CEC4CE255E4FC01608171818281CA
S11317A093810E94382DDC01CB01F8018083918361
S11317B0A283B383CE018A589F4F20E030E040E8F3
S11317C05FE3FC0160817181828193810E94182C06
S11317D088234CF4CE0186589F4F21E030E0FC0171
S11317E0318320836DC0CE018A589F4F20E03FEFA4
S11317F04FE757E4FC0160817181828193810E94EB
S1131800332D18160CF04AC0CE018E589F4F20E09D
S113181030E040E251E4FC01608171818281938176
S11318200E94382DDC01CB018E0106581F4FBC01EC
S1131830CD010E948F2CDC01CB01F80191838083C0
S113184024C0CE0184589F4F24E131E0FC01318350
S11318502083CE0184589F4FFC01808191810197A0
S1131860F1F79E0124583F4FF90191838083CE0103
S113187086589F4F9E0126583F4FF90120813181A0
S113188021503109FC0131832083CE0186589F4FBA
S1131890FC0180819181892BA1F67BC08E010658C1
S11318A01F4FCE018A589F4FFC0160817181828154
S11318B093810E948F2CDC01CB01F80191838083FA
S11318C0CE0182589F4F9E0126583F4FF901208137
S11318D03181FC0131832083CE0182589F4FFC016A
S11318E0808191810197F1F79E0122583F4FF901C0
S11318F0918380834EC0CE0187599F4F20E030E012
S11319004FE753E4FC0160817181828193810E94DD
S1131910332D18166CF58E0100581F4FCE018359D4
S11319209F4FFC0160817181828193810E948F2C81
S1131930DC01CB01F80191838083CE018E579F4F48
S11319409E0120583F4FF90120813181FC013183F0
S11319502083CE018E579F4FFC0180819181019796
S1131960F1F79E012E573F4FF9019183808328C0E0
S11319708E010F581F4FCE0187599F4FFC01608184
S11319807181828193810E948F2CDC01CB01F8014B
S11319908083CE018C579F4F9E012F583F4FF901F2
S11319A02081FC012083CE018C579F4FFC01808154
S11319B0282F2A95F1F7CE018C579F4FFC012083E5
S11319C080E30E94591480E090E4A3E8B5E4898799
S11319D09A87AB87BC878E01035B1F4F2AEF3DEECE
S11319E04BE650E469857A858B859C850E94382D69
S11319F0DC01CB01F80180839183A283B3838E0140
S1131A000F5A1F4F2CE732EF40E350E469857A8583
S1131A108B859C850E94382DDC01CB01F8018083E5
S1131A209183A283B383CE01835B9F4F20E030E098
S1131A3040E85FE3FC0160817181828193810E94AF
S1131A40182C88233CF4CE018B5A9F4F21E0FC01D3
S1131A5020832CC1CE018F5A9F4F20E03FEF4FE7E8
S1131A6057E4FC0160817181828193810E94332D4E
S1131A7018160CF0CDC020E030E04AE754E4698544
S1131A807A858B859C850E941D2CDC01CB019E01EF
S1131A902A5A3F4FF90180839183A283B3838E0135
S1131AA0065A1F4FCE018A5A9F4F2DEC3CEC4CE254
S1131AB055E4FC0160817181828193810E94382DFB
S1131AC0DC01CB01F80180839183A283B383CE012F
S1131AD0865A9F4F20E030E040E85FE3FC016081DC
S1131AE07181828193810E94182C88234CF4CE0149
S1131AF0825A9F4F21E030E0FC01318320836DC086
S1131B00CE01865A9F4F20E03FEF4FE757E4FC0198
S1131B1060817181828193810E94332D18160CF0AB
S1131B204AC0CE018A5A9F4F20E030E040E251E49F
S1131B30FC0160817181828193810E94382DDC01D6
S1131B40CB018E01025A1F4FBC01CD010E948F2C84
S1131B50DC01CB01F8019183808324C0CE01805A3B
S1131B609F4F24E131E0FC0131832083CE01805A70
S1131B709F4FFC01808191810197F1F79E01205ACA
S1131B803F4FF90191838083CE01825A9F4F9E017A
S1131B90225A3F4FF9012081318121503109FC0142
S1131BA031832083CE01825A9F4FFC018081918131
S1131BB0892BA1F67BC08E01025A1F4FCE01865A93
S1131BC09F4FFC0160817181828193810E948F2CDF
S1131BD0DC01CB01F80191838083CE018E599F4FA4
S1131BE09E01225A3F4FF90120813181FC0131834A
S1131BF02083CE018E599F4FFC01808191810197F2
S1131C00F1F79E012E593F4FF901918380834EC015
S1131C10CE01835B9F4F20E030E04FE753E4FC01AB
S1131C2060817181828193810E94332D18166CF535
S1131C308E010C591F4FCE018F5A9F4FFC016081BA
S1131C407181828193810E948F2CDC01CB01F80188
S1131C5091838083CE018A599F4F9E012C593F4F17
S1131C60F90120813181FC0131832083CE018A591D
S1131C709F4FFC01808191810197F1F79E012A59C0
S1131C803F4FF9019183808328C08E010B5A1F4F67
S1131C90CE01835B9F4FFC016081718182819381BE
S1131CA00E948F2CDC01CB01F8018083CE0188597E
S1131CB09F4F9E012B5A3F4FF9012081FC01208345
S1131CC0CE0188599F4FFC018081282F2A95F1F776
S1131CD0CE0188599F4FFC01208380E30E94591450
S1131CE080E090E0A8ECB2E48D879E87AF87B88B44
S1131CF02AEF3DEE4BE650E46D857E858F8598890D
S1131D000E94382DDC01CB0189AB9AABABABBCABE9
S1131D102CE732EF40E350E46D857E858F8598890A
S1131D200E94382DDC01CB018DAB9EABAFABB8AFBD
S1131D3020E030E040E85FE369A97AA98BA99CA977
S1131D400E94182C88231CF481E089AF09C120E08B
S1131D503FEF4FE757E46DA97EA98FA998AD0E9484
S1131D60332D18160CF0BEC020E030E04AE754E4EE
S1131D706D857E858F8598890E941D2CDC01CB01A1
S1131D808AAF9BAFACAFBDAF8E01025C1F4F2DEC91
S1131D903CEC4CE255E46AAD7BAD8CAD9DAD0E944C
S1131DA0382DDC01CB01F80180839183A283B383B6
S1131DB0CE01CE9620E030E040E85FE3FC01608194
S1131DC07181828193810E94182C88234CF4CE0166
S1131DD08E5B9F4F21E030E0FC013183208367C09C
S1131DE0CE01CE9620E03FEF4FE757E4FC0160813F
S1131DF07181828193810E94332D18160CF046C0A4
S1131E0020E030E040E251E46AAD7BAD8CAD9DADA5
S1131E100E94382DDC01CB018E010E5B1F4FBC01EB
S1131E20CD010E948F2CDC01CB01F80191838083CA
S1131E3024C0CE018C5B9F4F24E131E0FC0131834F
S1131E402083CE018C5B9F4FFC018081918101979F
S1131E50F1F79E012C5B3F4FF90191838083CE0102
S1131E608E5B9F4F9E012E5B3F4FF9012081318194
S1131E7021503109FC0131832083CE018E5B9F4FB9
S1131E80FC0180819181892BA1F66AC08E010E5BD1
S1131E901F4FCE01CE96FC016081718182819381B6
S1131EA00E948F2CDC01CB01F80191838083CE0149
S1131EB08A5B9F4F9E012E5B3F4FF9012081318148
S1131EC0FC0131832083CE018A5B9F4FFC0180811A
S1131ED091810197F1F79E012A5B3F4FF9019183AC
S1131EE080833EC020E030E04FE753E469A97AA93B
S1131EF08BA99CA90E94332D18164CF58E01085B02
S1131F001F4F6DA97EA98FA998AD0E948F2CDC016B
S1131F10CB01F80191838083CE01865B9F4F9E01A4
S1131F20285B3F4FF90120813181FC0131832083FB
S1131F30CE01865B9F4FFC01808191810197F1F76F
S1131F409E01265B3F4FF901918380831CC069A9E0
S1131F507AA98BA99CA90E948F2CDC01CB0189AFA3
S1131F60CE01845B9F4F29ADFC012083CE01845BAD
S1131F709F4FFC018081282F2A95F1F7CE01845BC5
S1131F809F4FFC01208380E30E94591480E090E07D
S1131F90A8ECB2E4898B9A8BAB8BBC8B2AEF3DEE19
S1131FA04BE650E469897A898B899C890E94382D93
S1131FB0DC01CB018D8B9E8BAF8BB88F2CE732EF7E
S1131FC040E350E469897A898B899C890E94382D81
S1131FD0DC01CB01898F9A8FAB8FBC8F20E030E07E
S1131FE040E85FE36D897E898F89988D0E94182C63
S1131FF088231CF481E08D8FB2C020E03FEF4FE7CF
S113200057E4698D7A8D8B8D9C8D0E94332D181623
S11320100CF07BC020E030E04AE754E469897A8917
S11320208B899C890E941D2CDC01CB018E8F9F8F94
S1132030A8A3B9A32DEC3CEC4CE255E46E8D7F8D46
S113204088A199A10E94382DDC01CB018AA39BA30E
S1132050ACA3BDA320E030E040E85FE36AA17BA12C
S11320608CA19DA10E94182C88232CF481E090E07F
S11320709FA38EA33FC020E03FEF4FE757E46AA140
S11320807BA18CA19DA10E94332D18164CF520E054
S113209030E040E251E46E8D7F8D88A199A10E94C9
S11320A0382DDC01CB01BC01CD010E948F2CDC0159
S11320B0CB019FA38EA30FC084E191E099A788A7C9
S11320C088A599A50197F1F799A788A78EA19FA143
S11320D001979FA38EA38EA19FA1892B69F73FC06F
S11320E06AA17BA18CA19DA10E948F2CDC01CB0154
S11320F09FA38EA38EA19FA19BA78AA78AA59BA518
S11321000197F1F79BA78AA72AC020E030E04FE7A8
S113211053E46D897E898F89988D0E94332D18161A
S1132120ACF4698D7A8D8B8D9C8D0E948F2CDC0193
S1132130CB019DA78CA78CA59DA59FA78EA78EA537
S11321409FA50197F1F79FA78EA70FC06D897E8980
S11321508F89988D0E948F2CDC01CB018D8F8D8D02
S113216088AB88A98A95F1F788AB80E20E9459145C
S11321708091320180620E940F1484E080933301C5
S11321800E9407120E94DB1082E080933401809148
S1132190340184600E940F140E9468110000C25729
S11321A0DF4F0FB6F894DEBF0FBECDBFDF91CF91E6
S11321B01F910F910895CF93DF93CDB7DEB72E977C
S11321C00FB6F894DEBF0FBECDBF81E00E940F149E
S11321D0809135018093390180E090E0A0E0B0E483
S11321E089839A83AB83BC832DEC3CEC4CE255E4AD
S11321F069817A818B819C810E94382DDC01CB011D
S11322008D839E83AF83B88720E030E040E85FE3AE
S11322106D817E818F8198850E94182C88232CF4EF
S113222081E090E09A8789873FC020E03FEF4FE745
S113223057E46D817E818F8198850E94332D181615
S11322404CF520E030E040E251E469817A818B81F1
S11322509C810E94382DDC01CB01BC01CD010E9480
S11322608F2CDC01CB019A8789870FC084E191E030
S11322709C878B878B859C850197F1F79C878B873F
S113228089859A8501979A87898789859A85892B73
S113229069F714C06D817E818F8198850E948F2C8F
S11322A0DC01CB019A87898789859A859E878D87EA
S11322B08D859E850197F1F79E878D8700002E9668
S11322C00FB6F894DEBF0FBECDBFDF91CF91089556
S11322D0CF93DF93CDB7DEB72E970FB6F894DEBF5A
S11322E00FBECDBF82E00E940F1480913501809310
S11322F0390180E090E0A0E0B0E489839A83AB8365
S1132300BC832DEC3CEC4CE255E469817A818B81F1
S11323109C810E94382DDC01CB018D839E83AF8389
S1132320B88720E030E040E85FE36D817E818F81F3
S113233098850E94182C88232CF481E090E09A87D9
S113234089873FC020E03FEF4FE757E46D817E81EE
S11323508F8198850E94332D18164CF520E030E0CB
S113236040E251E469817A818B819C810E94382DFD
S1132370DC01CB01BC01CD010E948F2CDC01CB011F
S11323809A8789870FC084E191E09C878B878B852E
S11323909C850197F1F79C878B8789859A8501979E
S11323A09A87898789859A85892B69F714C06D81F5
S11323B07E818F8198850E948F2CDC01CB019A87C6
S11323C0898789859A859E878D878D859E850197C6
S11323D0F1F79E878D8700002E960FB6F894DEBF26
S11323E00FBECDBFDF91CF910895CF93DF93CDB7CB
S11323F0DEB7809133018B7F809333018091330169
S113240088600E940F140000DF91CF910895CF934C
S1132410DF93CDB7DEB780913301846080933301BD
S11324208091330188600E940F140000DF91CF91E6
S11324300895CF93DF93CDB7DEB7809133018E7FBC
S1132440809333018091330188600E940F1400004F
S1132450DF91CF910895CF93DF93CDB7DEB780910D
S113246033018160809333018091330188600E943D
S11324700F140000DF91CF910895CF93DF93CDB770
S1132480DEB7809133018D7F8093330180913301D6
S113249088600E940F140000DF91CF910895CF93BC
S11324A0DF93CDB7DEB7809133018260809333012F
S11324B08091330188600E940F140000DF91CF9156
S11324C00895CF93DF93CDB7DEB788E10E940F1450
S11324D00000DF91CF910895CF93DF93CDB7DEB79E
S11324E08CE10E940F140000DF91CF910895CF93E7
S11324F0DF93CDB7DEB780913401826080933401DD
S11325008091340184600E940F140000DF91CF9108
S11325100895CF93DF93CDB7DEB7809134018D7FDB
S1132520809334018091340184600E940F14000070
S1132530DF91CF910895CF93DF93CDB7DEB710929B
S1132540380180E00E947D160000DF91CF9108954C
S1132550CF93DF93CDB7DEB780E88093380180E076
S11325600E947D160000DF91CF910895CF93DF93F1
S1132570CDB7DEB7809134018160809334018091BE
S1132580340184600E940F140000DF91CF910895FC
S1132590CF93DF93CDB7DEB7809134018E7F8093E4
S11325A034018091340184600E940F140000DF9193
S11325B0CF910895CF93DF9300D000D01F92CDB771
S11325C0DEB78B837D836C838B8187708B838B8158
S11325D0882F90E0880F991F880F991F880F991FE3
S11325E080640E940F141A8219820FC089819A8113
S11325F02C813D81820F931FFC0180810E941E1457
S113260089819A8101969A83898389819A8108971D
S11326106CF300000F900F900F900F900F90DF91CC
S1132620CF910895CF93DF93CDB7DEB72A970FB636
S1132630F894DEBF0FBECDBF89876A8728E0E2EF3A
S1132640F0E0CE010196DC0101900D922A95E1F7AC
S1132650809136019A85891720F480913601815042
S11326608A878A85882F90E0880F991F9E012F5FA3
S11326703F4F820F931FFC0180819181982F8985A0
S1132680890F80680E940F14909135018985F92F74
S1132690F81B8F2F8093390100002A960FB6F89407
S11326A0DEBF0FBECDBFDF91CF910895CF93DF93EF
S11326B0CDB7DEB70E942B120000DF91CF910895B1
S11326C0CF93DF93CDB7DEB70E9419120000DF91DC
S11326D0CF910895CF93DF93CDB7DEB70E944F1209
S11326E00000DF91CF910895CF93DF93CDB7DEB78C
S11326F00E943D120000DF91CF910895CF93DF93A4
S113270000D0CDB7DEB79A83898389819A810E94EC
S1132710B21300000F900F90DF91CF910895CF93E3
S1132720DF9300D01F92CDB7DEB7809139018B8340
S11327301A82198208C080E20E941E1489819A813B
S113274001969A8389838B81282F30E089819A812D
S11327508217930784F300000F900F900F90DF917E
S1132760CF910895CF93DF9300D01F92CDB7DEB7FA
S11327709B838A8319820EC0898191E0980F998383
S1132780882F90E02A813B81820F931FFC01808176
S11327900E941E148981882F90E02A813B81820F38
S11327A0931FFC018081882339F700000F900F905C
S11327B00F90DF91CF9108951F93CF93DF93CDB7FF
S11327C0DEB727970FB6F894DEBF0FBECDBF9F8349
S11327D08E8310E08E819F819A83898303C0812F29
S11327E00E941E1489819A819C012F5F3F4F3A8376
S11327F029839C838B838B819C81FC0184918D83B1
S11328008D81182F112359F7000027960FB6F894DD
S1132810DEBF0FBECDBFDF91CF911F910895CF933F
S1132820DF931F92CDB7DEB7898360E089810E9470
S1132830321400000F90DF91CF910895CF93DF936E
S11328401F92CDB7DEB7898361E089810E9432147B
S11328508091390181508093390100000F90DF91FC
S1132860CF910895CF93DF9300D000D0CDB7DEB7DA
S11328708B836C838B81807F89838B81882F90E00D
S113288082959295907F9827807F98278A83998153
S11328908C81892B0E9459149A818C81892B0E94E6
S11328A0591400000F900F900F900F90DF91CF916B
S11328B00895CF93DF931F92CDB7DEB789838981C3
S11328C00E94671400000F90DF91CF910895CF9379
S11328D0DF93CDB7DEB7C154D1090FB6F894DEBF8C
S11328E00FBECDBF9E012F5B3F4FF9018083CE0108
S11328F08F5B9F4FFC01808184600E947D1680E085
S113290090E0ACE8B2E489839A83AB83BC832AEF7A
S11329103DEE4BE650E469817A818B819C810E9473
S1132920382DDC01CB018DA39EA3AFA3B8A72CE760
S113293032EF40E350E469817A818B819C810E946B
S1132940382DDC01CB0189A79AA7ABA7BCA720E04F
S113295030E040E85FE36DA17EA18FA198A50E94BD
S1132960182C88231CF481E08DA7B2C020E03FEF2F
S11329704FE757E469A57AA58BA59CA50E94332D42
S113298018160CF07BC020E030E04AE754E469817B
S11329907A818B819C810E941D2CDC01CB018EA746
S11329A09FA7A8ABB9AB2DEC3CEC4CE255E46EA56B
S11329B07FA588A999A90E94382DDC01CB018AAB97
S11329C09BABACABBDAB20E030E040E85FE36AA971
S11329D07BA98CA99DA90E94182C88232CF481E042
S11329E090E09FAB8EAB3FC020E03FEF4FE757E452
S11329F06AA97BA98CA99DA90E94332D18164CF5B0
S1132A0020E030E040E251E46EA57FA588A999A9B1
S1132A100E94382DDC01CB01BC01CD010E948F2C1A
S1132A20DC01CB019FAB8EAB0FC084E191E099AF89
S1132A3088AF88AD99AD0197F1F799AF88AF8EA9AA
S1132A409FA901979FAB8EAB8EA99FA9892B69F78C
S1132A503FC06AA97BA98CA99DA90E948F2CDC0187
S1132A60CB019FAB8EAB8EA99FA99BAF8AAF8AADDA
S1132A709BAD0197F1F79BAF8AAF2AC020E030E00D
S1132A804FE753E46DA17EA18FA198A50E94332D39
S1132A901816ACF469A57AA58BA59CA50E948F2C69
S1132AA0DC01CB019DAF8CAF8CAD9DAD9FAF8EAFE4
S1132AB08EAD9FAD0197F1F79FAF8EAF1CC06DA196
S1132AC07EA18FA198A50E948F2CDC01CB018DA73C
S1132AD02DA5CE01805C9F4FFC012083CE01805C3C
S1132AE09F4FFC018081282F2A95F1F7CE01805C4D
S1132AF09F4FFC012083CE018F5B9F4FFC0180819F
S1132B008B7F0E947D1680E090E0A0E8BFE38D8378
S1132B109E83AF83B8872AEF3DEE4BE650E46D8188
S1132B207E818F8198850E94382DDC01CB018987B5
S1132B309A87AB87BC872CE732EF40E350E46D8182
S1132B407E818F8198850E94382DDC01CB018D8791
S1132B509E87AF87B88B20E030E040E85FE369856B
S1132B607A858B859C850E94182C88231CF481E02F
S1132B70898BB2C020E03FEF4FE757E46D857E8537
S1132B808F8598890E94332D18160CF07BC020E0A5
S1132B9030E04AE754E46D817E818F8198850E94FC
S1132BA01D2CDC01CB018A8B9B8BAC8BBD8B2DEC5C
S1132BB03CEC4CE255E46A897B898C899D890E94AE
S1132BC0382DDC01CB018E8B9F8BA88FB98F20E031
S1132BD030E040E85FE36E897F89888D998D0E949B
S1132BE0182C88232CF481E090E09B8F8A8F3FC0BF
S1132BF020E03FEF4FE757E46E897F89888D998DF8
S1132C000E94332D18164CF520E030E040E251E4E8
S1132C106A897B898C899D890E94382DDC01CB01CE
S1132C20BC01CD010E948F2CDC01CB019B8F8A8FCC
S1132C300FC084E191E09D8F8C8F8C8D9D8D0197C9
S1132C40F1F79D8F8C8F8A8D9B8D01979B8F8A8F37
S1132C508A8D9B8D892B69F73FC06E897F89888D0A
S1132C60998D0E948F2CDC01CB019B8F8A8F8A8DDA
S1132C709B8D9F8F8E8F8E8D9F8D0197F1F79F8FE8
S1132C808E8F2AC020E030E04FE753E469857A85CF
S1132C908B859C850E94332D1816ACF46D857E853A
S1132CA08F8598890E948F2CDC01CB0199A388A37E
S1132CB088A199A19BA38AA38AA19BA10197F1F75B
S1132CC09BA38AA30FC069857A858B859C850E9406
S1132CD08F2CDC01CB01898B89898CA38CA18A95EB
S1132CE0F1F78CA30000CF5BDF4F0FB6F894DEBF83
S1132CF00FBECDBFDF91CF910895CF93DF9300D066
S1132D00CDB7DEB78A838A81882F90E0807F9927A8
S1132D109595879589838A81982F9F708981892BBE
S1132D2089838BE390E0309138012981232BFC01C6
S1132D30208300000F900F90DF91CF910895CF93DF
S1132D40DF93CDB7DEB70E94640640E062E080E125
S1132D500E94490A0E946B0A0E94A81260E080E067
S1132D600E9412138AEF90E00E94B213FFCFCF9318
S1132D70DF931F92CDB7DEB789838981882F90E0D6
S1132D8081309105F9F0823091051CF4892B39F0DA
S1132D9052C08230910549F10397D1F14CC082E3CE
S1132DA090E022E330E0F90120812F7EFC012083B2
S1132DB082E390E022E330E0F90120812F7DFC01E1
S1132DC0208339C082E390E022E330E0F9012081DE
S1132DD02F7EFC01208382E390E022E330E0F901BE
S1132DE020812062FC01208326C082E390E022E35C
S1132DF030E0F90120812061FC01208382E390E02E
S1132E0022E330E0F90120812F7DFC01208313C0EF
S1132E1082E390E022E330E0F90120812061FC01AB
S1132E20208382E390E022E330E0F90120812062F4
S1132E30FC012083000000000F90DF91CF910895E2
S1132E40CF93DF931F92CDB7DEB789838981882F13
S1132E5090E08230910591F1833091051CF4019743
S1132E60D1F052C083309105E1F1049709F04CC0D0
S1132E7082E390E022E330E0F90120812064FC0148
S1132E80208382E390E022E330E0F90120812F7770
S1132E90FC01208339C082E390E022E330E0F901B1
S1132EA020812F7BFC01208382E390E022E330E049
S1132EB0F90120812F77FC01208326C082E390E072
S1132EC022E330E0F90120812064FC01208382E3C5
S1132ED090E022E330E0F90120812068FC012083A6
S1132EE013C082E390E022E330E0F90120812F7BDC
S1132EF0FC01208382E390E022E330E0F9012081A9
S1132F002068FC012083000000000F90DF91CF9126
S1132F100895CF93DF9300D0CDB7DEB79A8389832A
S1132F2080914001909141010196909341018093D9
S1132F30400100000F900F90DF91CF910895CF933F
S1132F40DF9300D000D01F92CDB7DEB79D838C8372
S1132F508C819D819A83898389818B838B8188234A
S1132F6009F457C08B810E9420178B81882F90E031
S1132F7082309105B1F0833091051CF4019739F04A
S1132F803BC083309105B1F00497E9F035C082E38A
S1132F9090E022E330E0F90120812860FC012083E5
S1132FA02BC0809140019091410190933B0180930B
S1132FB03A0122C0809140019091410190933D01DA
S1132FC080933C0119C080914001909141019093FC
S1132FD03F0180933E0181E08093420182E390E0CF
S1132FE022E330E0F9012081277FFC01208380E087
S1132FF090E00E94B62B00008B81843029F08981F7
S11330009A8101960E94B62B1092410110924001C0
S113301001C000000F900F900F900F900F90DF9160
S1133020CF910895CF93DF93CDB7DEB7809143015D
S113303090914401892BB9F080914201882399F041
S11330401092420120914301309144018091450145
S113305090914601F90109950E948A280E949B28B3
S113306080E00E94B7160000DF91CF9108950F937E
S11330701F93CF93DF93CDB7DEB781E390E021E3D5
S113308030E0F9012081206FFC01208381E390E08E
S113309021E330E0F90120812860FC01208382E3F0
S11330A090E022E330E0F9012081277FFC012083B6
S11330B081E390E021E330E0F90120812B7FFC01E2
S11330C0208382E390E022E330E0F90120812B7F2A
S11330D0FC01208360E47DE083E090E00E94742A98
S11330E000E010E029E837E140E063E080E00E947E
S11330F0B20860E070E08FE997E10E94982B80E0CD
S11331000E94B7160000DF91CF911F910F9108958F
S1133110CF93DF93CDB7DEB781E090E00E94B62B6A
S113312082E00E94B7160E94742B0E949B280E9482
S1133130772810924101109240010000DF91CF9155
S11331400895AF92BF92CF92DF92EF92FF920F93C6
S11331501F93CF93DF9300D000D000D0CDB7DEB75C
S113316016E0EAE3F1E0DE01119601900D921A9562
S1133170E1F700E0098110E01A81B0E0BB81A0E032
S1133180AC81F0E0FD81E0E0EE81202F312F4B2F68
S11331905A2F6F2F7E2FA22EB32EC42ED52EE62E9D
S11331A0F72E082F192F2A2D3B2D4C2D5D2D6E2D1A
S11331B07F2D802F912F26960FB6F894DEBF0FBE79
S11331C0CDBFDF91CF911F910F91FF90EF90DF90D2
S11331D0CF90BF90AF900895CF93DF9300D000D0ED
S11331E0CDB7DEB79A8389837C836B838B819C8183
S11331F0909346018093450189819A81909344017B
S11332008093430100000F900F900F900F90DF9177
S1133210CF910895CF93DF93CDB7DEB710924601D7
S11332201092450110924401109243010000DF9175
S1133230CF910895CF93DF93CDB7DEB7F89481E0B3
S1133240DF91CF910895CF93DF9300D0CDB7DEB750
S11332509A8389838FE590E029813A81F90120815D
S1133260FC01208300000F900F90DF91CF9108950F
S1133270CF93DF931F92CDB7DEB78983909160001F
S11332808981981749F480916F019091700101969A
S11332909093700180936F0180916B0190916C0108
S11332A08B5A9E4F2981FC01208380916B01909160
S11332B06C01019624E130E0B9010E94C92D90937C
S11332C06C0180936B0180916D0190916E01019668
S11332D090936E0180936D0100000F90DF91CF9168
S11332E00895CF93DF93CDB7DEB780916D019091B0
S11332F06E01DF91CF910895CF93DF93CDB7DEB701
S113330080916D0190916E0124E130E0A901481B88
S1133310590BCA01DF91CF910895CF93DF93CDB7B5
S1133320DEB780916D0190916E01892B19F48FEFB6
S11333309FEF0AC08091690190916A018B5A9E4F58
S1133340FC018081882F90E0DF91CF910895CF9385
S1133350DF931F92CDB7DEB780916D0190916E011E
S1133360892B19F48FEF9FEF37C0809169019091F9
S11333706A019C012F5F3F4F30936A0120936901DA
S11333808B5A9E4FFC0180818983809169019091C1
S11333906A0124E130E0B9010E94C92D90936A01C9
S11333A08093690180916D0190916E0101979093D2
S11333B06E0180936D01909160008981981749F4A2
S11333C080916F01909170010197909370018093A7
S11333D06F018981882F90E00F90DF91CF9108953C
S11333E0CF93DF93CDB7DEB710926E0110926D01CB
S11333F00000DF91CF910895CF93DF931F92CDB753
S1133400DEB7898380918701909188018F589E4F00
S11334102981FC0120838091870190918801019684
S113342024E130E0B9010E94C92D90938801809372
S113343087018091890190918A01019690938A0174
S11334408093890100000F90DF91CF910895CF936D
S1133450DF93CDB7DEB78091890190918A01DF9126
S1133460CF910895CF93DF93CDB7DEB780918901D3
S113347090918A01892B19F48FEF9FEF0AC08091F4
S11334808501909186018F589E4FFC018081882F81
S113349090E0DF91CF910895CF93DF931F92CDB742
S11334A0DEB78091890190918A01892B19F48FEFFD
S11334B09FEF29C080918501909186019C012F5F27
S11334C03F4F30938601209385018F589E4FFC0116
S11334D080818983809185019091860124E130E087
S11334E0B9010E94C92D9093860180938501809132
S11334F0890190918A01019790938A0180938901AF
S11335008981882F90E00F90DF91CF910895CF9318
S1133510DF93CDB7DEB710928A01109289010000C3
S1133520DF91CF910895CF93DF931F92CDB7DEB78C
S113353087E00E949A060E94271A1816190654F466
S11335400E944C1A898380915101909152012981E2
S1133550FC01208380914B0190914C0120914B01FF
S113356030914C01F901208123702064FC012083F7
S11335700E94271A892B49F48AE290E02AE230E07B
S1133580F90120812F7DFC01208300000F90DF9141
S1133590CF910895CF93DF931F92CDB7DEB780917B
S11335A04B0190914C01FC018081882F90E0847044
S11335B09927892B99F48091510190915201FC0132
S11335C0808189830E947C191816190624F4898144
S11335D00E94381903C081E08093540100000F90C9
S11335E0DF91CF910895CF93DF931F92CDB7DEB7CC
S11335F0898389818093600000000F90DF91CF91CF
S11336000895EF92FF920F931F93CF93DF93CDB75B
S1133610DEB72C970FB6F894DEBF0FBECDBF9A83EA
S113362089837C836B835E834D8338872F831A87DA
S11336300987FC86EB8689819A819093480180935F
S113364047018B819C8190934A01809349018D812C
S11336509E8190934C0180934B018F819885909328
S11336604E0180934D0189859A85909350018093F2
S11336704F018B859C8590935201809351010000EA
S11336802C960FB6F894DEBF0FBECDBFDF91CF915D
S11336901F910F91FF90EF900895EF92FF920F9377
S11336A01F93CF93DF93CDB7DEB727970FB6F89468
S11336B0DEBF0FBECDBF6B837C838D839E834F8320
S11336C00F2EFCE2EF2EF12CF02D00E410E02AE2A4
S11336D030E04BE250E069E270E080E490E00E9468
S11336E0011B1092530180E090E3AAE2B0E02B8129
S11336F03C814D815E81BC01CD010E94DD2DDA014A
S1133700C9010197A109B109B695A7959795879520
S11337109A83898389819A8181159041A0F0898156
S11337209A81969587959A83898380914B0190918C
S11337304C0120914B0130914C01F90120812D7FE6
S1133740FC0120830DC080914B0190914C0120918C
S11337504B0130914C01F90120812260FC0120834E
S1133760809147019091480129813A81232F332781
S1133770FC0120838091490190914A012981FC0137
S113378020838F8180688F8380914F0190915001B5
S11337902F81FC01208380914D0190914E01209155
S11337A04D0130914E01F90120812869FC012083EB
S11337B0000027960FB6F894DEBF0FBECDBFDF9191
S11337C0CF911F910F91FF90EF900895CF93DF93C6
S11337D000D000D0CDB7DEB769837A838B839C8316
S11337E089819A81AB81BC8146E0BC01CD010E94F4
S11337F04D1B00000F900F900F900F90DF91CF9111
S11338000895CF93DF93CDB7DEB79091530181E054
S113381089278823D1F520C08FE590E0FC018081C1
S11338208823D4F080914D0190914E01FC01808158
S1133830882F90E080729927892B71F080914B0139
S113384090914C01FC018081882F90E0807299272F
S1133850892B11F00E94931A80914D0190914E0191
S1133860FC018081882F90E080729927892BA1F632
S113387080914B0190914C01FC018081882F90E054
S113388080749927892B41F201C00000DF91CF9108
S11338900895CF93DF93CDB7DEB70E94011C8091CA
S11338A04D0190914E0120914D0130914E01F9014D
S11338B020812F7EFC01208380914D0190914E0147
S11338C020914D0130914E01F9012081277FFC01A7
S11338D0208380914D0190914E0120914D013091B2
S11338E04E01F90120812F77FC0120830E94F019F9
S11338F00000DF91CF910895CF93DF93CDB7DEB76A
S11339000E947119DF91CF910895CF93DF93CDB7C2
S1133910DEB70E948D19DF91CF910895CF93DF9385
S1133920CDB7DEB70E94A719DF91CF910895CF9349
S1133930DF93CDB7DEB780916F0190917001DF9175
S1133940CF910895CF93DF9300D000D0CDB7DEB7E9
S11339509B838A836C830E94971C18161906ACF506
S113396019822CC00E94A719898389818A3051F455
S11339708A819B819C012F5F3F4F3B832A83FC01FB
S113398010821CC089818D3059F48A819B819C01ED
S11339902F5F3F4F3B832A83FC01108200001BC032
S11339A08981882309F40AC08A819B819C012F5F45
S11339B03F4F3B832A832981FC0120838C819FEF25
S11339C0980F9C83882371F606C080915401882344
S11339D011F00E94F01900000F900F900F900F90BB
S11339E0DF91CF910895CF93DF93CDB7DEB7809168
S11339F0890190918A0124E130E0A901481B590B07
S1133A00CA01DF91CF910895CF93DF93CDB7DEB78D
S1133A102A970FB6F894DEBF0FBECDBF8A878A857A
S1133A208F3E41F48CE30E941E1460E080E00E940B
S1133A3012131DC08A858E3721F48EE30E941E1452
S1133A4016C08A85882321F48EE20E941E140FC0BA
S1133A508A85882F90E09E012D5F3F4F40E150E022
S1133A60B9010E94142FCE0103960E94B21381E083
S1133A70809353010E94271A892B09F049C0809131
S1133A804B0190914C01FC018081882F90E0807261
S1133A909927892BE9F18FE590E0FC0180818887E3
S1133AA00E941A19898316C0809151019091520184
S1133AB02A85FC01208380914B0190914C01209137
S1133AC04B0130914C01F901208123702064FC01E9
S1133AD0208319828981882339F7CE0108960E94B0
S1133AE0231981E090E03BC08FE590E0FC018081E8
S1133AF0882374F080914B0190914C01FC018081EA
S1133B00882F90E080729927892B11F00E94931AD4
S1133B100E94F31C892B41F38FE590E0FC01808126
S1133B2089870E941A198A8311C08A850E94FC1908
S1133B3080914D0190914E0120914D0130914E01A3
S1133B40F90120812062FC0120831A828A81882362
S1133B5061F7CE0109960E94231981E090E02A962C
S1133B600FB6F894DEBF0FBECDBFDF91CF9108959D
S1133B70CF93DF9300D000D0CDB7DEB79C838B8387
S1133B808B819C819A8389830BC089819A819C0152
S1133B902F5F3F4F3A832983FC0180810E94041DDB
S1133BA089819A81FC018081882379F700000F9034
S1133BB00F900F900F90DF91CF9108951F93CF93A3
S1133BC0DF93CDB7DEB727970FB6F894DEBF0FBEED
S1133BD0CDBF9F838E8310E08E819F819A838983DA
S1133BE003C0812F0E94041D89819A819C012F5F4B
S1133BF03F4F3A8329839C838B838B819C81FC0177
S1133C0084918D838D81182F112359F700002796F5
S1133C100FB6F894DEBF0FBECDBFDF91CF911F91D9
S1133C200895CF93DF93CDB7DEB783EE90E00E9483
S1133C30DE1D0000DF91CF910895CF93DF9300D074
S1133C40CDB7DEB79A83898389819A810E94B81D92
S1133C500E94111E00000F900F90DF91CF910895E4
S1133C60CF93DF9300D0CDB7DEB79A838983898160
S1133C709A810E94DE1D0E94111E00000F900F9079
S1133C80DF91CF910895CF93DF93CDB7DEB7AD9792
S1133C900FB6F894DEBF0FBECDBF69A77AA78BA776
S1133CA09CA74DA7CE01089680969A838983898123
S1133CB09A81FC0110828DA5823010F48AE08DA7D0
S1133CC089A59AA5ABA5BCA58B839C83AD83BE8334
S1133CD08DA5282F30E040E050E089A59AA5ABA53A
S1133CE0BCA5BC01CD010E94DD2DDA01C90189A763
S1133CF09AA7ABA7BCA79B8129A58DA5289F802D3A
S1133D001124F92FF81B8F2F8F8389819A810197B2
S1133D109A8389838F818A3020F48F8120E3280F4E
S1133D2003C08F8127E3280F89819A81FC012083B6
S1133D3089A59AA5ABA5BCA5892B8A2B8B2B09F049
S1133D40BFCF0000AD960FB6F894DEBF0FBECDBF57
S1133D50DF91CF910895CF93DF9300D000D0CDB7FA
S1133D60DEB769837A838B839C8386EE90E00E941E
S1133D70301E89819A81AB81BC8140E1BC01CD01B7
S1133D800E94431E00000F900F900F900F90DF9140
S1133D90CF910895CF93DF9300D000D0CDB7DEB795
S1133DA069837A838B839C8389819A81AB81BC816B
S1133DB04AE0BC01CD010E94431E00000F900F9009
S1133DC00F900F90DF91CF910895CF93DF9300D0A0
S1133DD000D0CDB7DEB769837A838B839C8386EE6C
S1133DE090E00E94301E89819A81AB81BC8140E1C0
S1133DF0BC01CD010E94431E00000F900F900F9054
S1133E000F90DF91CF910895CF93DF9300D000D02E
S1133E101F92CDB7DEB79C838B836D831A82198280
S1133E200FC089819A812B813C81820F931FFC01F1
S1133E3080810E94041D89819A8101969A838983D5
S1133E408D81282F30E089819A81821793074CF362
S1133E5000000F900F900F900F900F90DF91CF9173
S1133E6008951F920F9200905F000F9211242F93D8
S1133E703F934F935F936F937F938F939F93AF93EE
S1133E80BF93EF93FF93CF93DF93CDB7DEB70E9439
S1133E90CA1A0000DF91CF91FF91EF91BF91AF91CA
S1133EA09F918F917F916F915F914F913F912F914E
S1133EB00F9000925F000F901F9018951F920F9221
S1133EC000905F000F9211242F933F934F935F93C1
S1133ED06F937F938F939F93AF93BF93EF93FF93CE
S1133EE0CF93DF93CDB7DEB70E94931A0000DF9122
S1133EF0CF91FF91EF91BF91AF919F918F917F915E
S1133F006F915F914F913F912F910F9000925F00BD
S1133F100F901F901895CF93DF93CDB7DEB780E154
S1133F2080939F0186E0EBE0F1E0A3E9B1E001902A
S1133F300D928A95E1F786E0E1E1F1E0A9E9B1E0CB
S1133F4001900D928A95E1F78FEF8093A0018FEF96
S1133F508093A1018FEF8093A2011092A30110928C
S1133F60A4011092A50180E48093A60180E68093C9
S1133F70A70180EA8093A80180E48093A90180E9E5
S1133F808093AA0180E58093AB0180EA8093AC0121
S1133F9080E38093AD0180E38093AE018FEF809343
S1133FA0AF018FEF8093B00180E58093B1010000F1
S1133FB0DF91CF910895CF93DF93CDB7DEB780EA39
S1133FC091E0DF91CF910895CF93DF931F92CDB706
S1133FD0DEB789838981282F30E0C901880F991FB2
S1133FE0820F931F80569E4FFC0180819181A28194
S1133FF0BC018A2F0F90DF91CF910895AF92BF92A9
S1134000CF92DF92EF92FF920F931F93CF93DF93A0
S113401000D000D000D0CDB7DEB716E0E3E9F1E080
S1134020DE01119601900D921A95E1F700E00981E5
S113403010E01A81B0E0BB81A0E0AC81F0E0FD812A
S1134040E0E0EE81202F312F4B2F5A2F6F2F7E2F40
S1134050A22EB32EC42ED52EE62EF72E082F192FFE
S11340602A2D3B2D4C2D5D2D6E2D7F2D802F912FD4
S113407026960FB6F894DEBF0FBECDBFDF91CF9169
S11340801F910F91FF90EF90DF90CF90BF90AF9072
S11340900895CF93DF9300D000D000D0CDB7DEB722
S11340A049835A836B837C838D839E8326E0CE0170
S11340B00196FC01A3E9B1E001900D922A95E1F784
S11340C0000026960FB6F894DEBF0FBECDBFDF9179
S11340D0CF910895AF92BF92CF92DF92EF92FF9269
S11340E00F931F93CF93DF9300D000D000D0CDB7B0
S11340F0DEB716E0E9E9F1E0DE01119601900D92D8
S11341001A95E1F700E0098110E01A81B0E0BB8163
S1134110A0E0AC81F0E0FD81E0E0EE81202F312FC2
S11341204B2F5A2F6F2F7E2FA22EB32EC42ED52E97
S1134130E62EF72E082F192F2A2D3B2D4C2D5D2D01
S11341406E2D7F2D802F912F26960FB6F894DEBF0B
S11341500FBECDBFDF91CF911F910F91FF90EF90D4
S1134160DF90CF90BF90AF900895CF93DF9300D0AE
S113417000D000D0CDB7DEB749835A836B837C83EC
S11341808D839E8326E0CE010196FC01A9E9B1E06E
S113419001900D922A95E1F7000026960FB6F89447
S11341A0DEBF0FBECDBFDF91CF910895CF93DF93D4
S11341B0CDB7DEB780919F01DF91CF910895CF9362
S11341C0DF93CDB7DEB70000DF91CF910895CF9391
S11341D0DF9300D000D0CDB7DEB79C838B838B8177
S11341E09C819093DF018093DE011A82198234C08E
S11341F029813A81C901880F991F880F991F880F57
S1134200991F821B930B80539E4FFC0110822981BE
S11342103A81C901880F991F880F991F880F991F28
S1134220821B930B8D529E4FFC01118210822981B7
S11342303A81C901880F991F880F991F880F991F08
S1134240821B930B8F529E4FFC0111821082898135
S11342509A8101969A83898389819A81029744F28B
S113426085E490E025E430E0F90120812860FC0138
S1134270208389E590E020E8FC0120838B819C81E8
S1134280092E000CAA0BBB0BBC01CD010E94DE223F
S113429000000F900F900F900F90DF91CF91089531
S11342A0CF93DF93CDB7DEB785E490E025E430E02B
S11342B0F9012081287FFC0120830000DF91CF9148
S11342C00895CF93DF9300D000D0CDB7DEB71A8224
S11342D0198280C029813A81C901880F991F880FEA
S11342E0991F880F991F821B930B80539E4FFC01CB
S11342F08081882309F469C029813A81C901880F22
S1134300991F880F991F880F991F821B930B8F5237
S11343109E4FFC0180819181892B09F056C01C823B
S11343201B8229813A81C901880F991F880F991F1F
S1134330880F991F821B930B8D529E4FFC01408165
S1134340518129813A81C901880F991F880F991FCA
S1134350880F991F821B930B8B529E4FFC01808107
S113436091819E012D5F3F4FB901FA0109958B811F
S11343709C81892B79F429813A81C901880F991F7D
S1134380880F991F880F991F821B930B80539E4F90
S1134390FC0110828B819C812091DE013091DF0130
S11343A0B9010E94B52DCB01AC0129813A81C90123
S11343B0880F991F880F991F880F991F821B930BD1
S11343C08F529E4FFC015183408389819A810196CB
S11343D09A83898389819A8102970CF47BCF0000A8
S11343E00F900F900F900F90DF91CF910895CF937E
S11343F0DF9300D000D01F92CDB7DEB789837B83D3
S11344006A835D834C838981282F30E0C901880F3A
S1134410991F880F991F880F991F821B930B805334
S11344209E4FFC0110828981282F30E0C901880F3A
S1134430991F880F991F880F991F821B930B8F5206
S11344409E4FFC01118210828981282F30E0C9011E
S1134450880F991F880F991F880F991F821B930B30
S11344608D529E4F2C813D81FC01318320838981B3
S1134470282F30E0C901880F991F880F991F880FD2
S1134480991F821B930B8B529E4F2A813B81FC0107
S11344903183208300000F900F900F900F900F90A6
S11344A0DF91CF910895CF93DF931F92CDB7DEB7FD
S11344B089838981282F30E0C901880F991F880FCB
S11344C0991F880F991F821B930B80539E4FFC01E9
S11344D010828981282F30E0C901880F991F880F25
S11344E0991F880F991F821B930B8F529E4FFC01BB
S11344F0118210828981282F30E0C901880F991F09
S1134500880F991F880F991F821B930B8D529E4F02
S1134510FC01118210828981282F30E0C901880FA3
S1134520991F880F991F880F991F821B930B8B5219
S11345309E4FFC011182108200000F90DF91CF91F9
S11345400895CF93DF9300D01F92CDB7DEB7898350
S11345507B836A838981282F30E0C901880F991FE2
S1134560880F991F880F991F821B930B80539E4FAE
S113457021E0FC0120838981282F30E04091DE0175
S11345805091DF018A819B81BA010E94B52DCB0134
S1134590AC01C901880F991F880F991F880F991FB3
S11345A0821B930B8F529E4FFC015183408300006A
S11345B00F900F900F90DF91CF9108952F923F921B
S11345C04F925F926F927F928F929F92AF92BF921F
S11345D0CF92DF92EF92FF920F931F93CF93DF93CB
S11345E0CDB7DEB765970FB6F894DEBF0FBECDBF6B
S11345F06A877B878C879D87198280EC8A8388EA07
S11346008B831C821D821E821F8218868A859B854D
S1134610AC85BD851C012D01BB0F880B982FDC01D7
S1134620682E782E882E982EA22CB32CC42CD52C30
S1134630E62CF72C082D192D29813A814B815C81B8
S11346406D817E818F8198850E943E2EA22EB32E8D
S1134650C42ED52EE62EF72E082F192FA982BA8242
S1134660CB82DC82ED82FE820F83188729803A8018
S11346704B805C806D807E808F8098840F2EF8EE56
S1134680AF2EF02D0F2EF3E0BF2EF02DC12CD12C28
S1134690E12CF12C00E010E0222D332D442D552D7A
S11346A0662D772D882D992D0E94992EA22EB32E3A
S11346B0C42ED52EE62EF72E082F192F2A2D3B2D8A
S11346C04C2D5D2D6E2D7F2D802F912F29833A83C4
S11346D04B835C836D837E838F8398871986A9803F
S11346E0BA80CB80DC80ED80FE800F8118852A2D76
S11346F03B2D4C2D5D2D6E2D7F2D802F912F2E3F28
S1134700310541055105610571058105910509F0E2
S11347101CF481E0898711C229813A814B815C8133
S11347206D817E818F81988503E00E94F62EA22EF2
S1134730B32EC42ED52EE62EF72E082F192FA982BC
S1134740BA82CB82DC82ED82FE820F831887A98035
S1134750BA80CB80DC80ED80FE800F8118852A2D05
S11347603B2D4C2D5D2D6E2D7F2D802F912F2E3FB7
S1134770310541055105610571058105910509F072
S11347801CF482E08987D9C129813A814B815C81FB
S11347906D817E818F81988502E00E94F62EA22E83
S11347A0B32EC42ED52EE62EF72E082F192FA9824C
S11347B0BA82CB82DC82ED82FE820F831887A980C5
S11347C0BA80CB80DC80ED80FE800F8118852A2D95
S11347D03B2D4C2D5D2D6E2D7F2D802F912F2E3F47
S11347E0310541055105610571058105910509F002
S11347F01CF483E08987A1C129813A814B815C81C2
S11348006D817E818F81988501E00E94F62EA22E13
S1134810B32EC42ED52EE62EF72E082F192FA982DB
S1134820BA82CB82DC82ED82FE820F831887A98054
S1134830BA80CB80DC80ED80FE800F8118852A2D24
S11348403B2D4C2D5D2D6E2D7F2D802F912F2E3FD6
S1134850310541055105610571058105910509F091
S11348601CF484E0898769C129813A814B815C8188
S11348706D817E818F81988501E00E94F62EA22EA3
S1134880B32EC42ED52EE62EF72E082F192FA9826B
S1134890BA82CB82DC82ED82FE820F831887A980E4
S11348A0BA80CB80DC80ED80FE800F8118852A2DB4
S11348B03B2D4C2D5D2D6E2D7F2D802F912F2E3F66
S11348C0310541055105610571058105910509F021
S11348D01CF485E0898731C129813A814B815C814F
S11348E06D817E818F81988501E00E94F62EA22E33
S11348F0B32EC42ED52EE62EF72E082F192FA982FB
S1134900BA82CB82DC82ED82FE820F831887A98073
S1134910BA80CB80DC80ED80FE800F8118852A2D43
S11349203B2D4C2D5D2D6E2D7F2D802F912F2E3FF5
S1134930310541055105610571058105910509F0B0
S11349401CF486E08987F9C029813A814B815C8116
S11349506D817E818F81988502E00E94F62EA22EC1
S1134960B32EC42ED52EE62EF72E082F192FA9828A
S1134970BA82CB82DC82ED82FE820F831887A98003
S1134980BA80CB80DC80ED80FE800F8118852A2DD3
S11349903B2D4C2D5D2D6E2D7F2D802F912F2E3F85
S11349A0310541055105610571058105910509F040
S11349B01CF487E08987C1C086E08987198280EC6E
S11349C08A8388EA8B831C821D821E821F8218863A
S11349D08A859B85AC85BD858E879F87A88BB98B7F
S11349E0BB0F880B982FDC018A8B8B8B8C8B8D8B68
S11349F0AE84BF84C888D988EA88FB880C891D895D
S1134A0029813A814B815C816D817E818F8198857A
S1134A100E943E2EA22EB32EC42ED52EE62EF72EA5
S1134A20082F192FA982BA82CB82DC82ED82FE8202
S1134A300F83188729803A804B805C806D807E804C
S1134A408F8098840F2EF8EEAF2EF02D0F2EF3E00A
S1134A50BF2EF02DC12CD12CE12CF12C00E010E064
S1134A60222D332D442D552D662D772D882D992DEE
S1134A700E94992EA22EB32EC42ED52EE62EF72EEA
S1134A80082F192F2A2D3B2D4C2D5D2D6E2D7F2D9A
S1134A90802F912F29833A834B835C836D837E839C
S1134AA08F83988729813A814B815C816D817E81D6
S1134AB08F81988508E00E94F62EA22EB32EC42E74
S1134AC0D52EE62EF72E082F192FA982BA82CB8273
S1134AD0DC82ED82FE820F83188729813A814B8123
S1134AE05C816D817E818F81988508E00E94F62E1D
S1134AF0A22EB32EC42ED52EE62EF72E082F192F54
S1134B00C5019093E1018093E00189818F7F8983BE
S1134B108A8180708A838B8180708B838C81807082
S1134B208C838D8180708D838E8180708E838F8144
S1134B3080708F8388858070888783E490E02981E2
S1134B40FC01208385E490E025E430E0F901308124
S1134B502985232BFC012083000065960FB6F89469
S1134B60DEBF0FBECDBFDF91CF911F910F91FF909C
S1134B70EF90DF90CF90BF90AF909F908F907F90F9
S1134B806F905F904F903F902F9008951F920F92D7
S1134B9000905F000F9211242F933F934F935F93E4
S1134BA08F939F93EF93FF93CF93DF9300D0CDB771
S1134BB0DEB78091E2019091E301892B09F05CC09A
S1134BC01A8219824BC029813A81C901880F991F21
S1134BD0880F991F880F991F821B930B80539E4F38
S1134BE0FC0180818823A9F129813A81C901880FB8
S1134BF0991F880F991F880F991F821B930B8F523F
S1134C009E4FFC0180819181892B19F129813A8180
S1134C10C901880F991F880F991F880F991F821B3C
S1134C20930B8F529E4FFC0180819181AC014150C6
S1134C30510929813A81C901880F991F880F991F49
S1134C40880F991F821B930B8F529E4FFC01518337
S1134C50408389819A8101969A83898389819A8183
S1134C6002970CF4B0CF8091E0019091E101909310
S1134C70E3018093E20109C08091E2019091E30194
S1134C8001979093E3018093E20100000F900F904D
S1134C90DF91CF91FF91EF919F918F915F914F9110
S1134CA03F912F910F9000925F000F901F901895E5
S1134CB0CF93DF93CDB7DEB760E875E280E090E094
S1134CC00E94E61B0000DF91CF910895CF93DF93FC
S1134CD01F92CDB7DEB70E947C1C18161906E4F4A7
S1134CE00E948E1C89838091EE0191E0980F90932D
S1134CF0EE01882F90E08C519E4F2981FC01208386
S1134D0089818F3E19F41092EE0106C08091EE0164
S1134D10893011F41092EE0100000F90DF91CF91D1
S1134D200895CF93DF931F92CDB7DEB7898389812E
S1134D308093EF0189818093650000000F90DF91DB
S1134D40CF910895CF93DF93CDB7DEB727970FB6F2
S1134D50F894DEBF0FBECDBF9F838E831D821C825D
S1134D601A82198281E08B8314C08B81882F90E092
S1134D702E813F81820F931FFC018081882F90E058
S1134D8029813A81820F931F9A8389838B818F5F54
S1134D908B838B81873048F389819A8191958195A2
S1134DA091099A83898389819A819D838C838C81DB
S1134DB09D8127960FB6F894DEBF0FBECDBFDF915D
S1134DC0CF910895CF93DF9300D0CDB7DEB781E6BE
S1134DD090E00E94A2269A83898389818093690046
S1134DE089819A81892F99278093680000000F9008
S1134DF00F90DF91CF910895CF93DF9300D0CDB77B
S1134E00DEB79A83898389819A81892F9927809330
S1134E10660089818093670000000F900F90DF91F6
S1134E20CF910895CF93DF93CDB7DEB76AE081E6E3
S1134E3090E00E94041F0000DF91CF910895CF936A
S1134E40DF9300D01F92CDB7DEB789837B836A835B
S1134E508981809364008A819B810E94FC260E9440
S1134E60E2260E94122700000F900F900F90DF910E
S1134E70CF910895CF93DF931F92CDB7DEB7898387
S1134E8060E070E089810E941F2700000F90DF918D
S1134E90CF910895CF93DF9300D0CDB7DEB79A8337
S1134EA0898389819A81BC0183E00E941F270000C5
S1134EB00F900F90DF91CF910895CF93DF93CDB7EB
S1134EC0DEB783E00E943A270000DF91CF91089576
S1134ED0CF93DF93CDB7DEB781E00E943A2700007D
S1134EE0DF91CF910895CF93DF93CDB7DEB782E002
S1134EF00E943A270000DF91CF910895CF93DF936A
S1134F0000D0CDB7DEB79A83898389819A81BC01A9
S1134F1086E00E941F2700000F900F90DF91CF9131
S1134F200895CF93DF9300D0CDB7DEB79A838983FA
S1134F3089819A81BC0187E00E941F2700000F909D
S1134F400F90DF91CF910895CF93DF9300D0CDB729
S1134F50DEB79A83898389819A81BC0189E00E94A2
S1134F601F2700000F900F90DF91CF910895CF93EA
S1134F70DF93CDB7DEB78AE00E943A270000DF91C5
S1134F80CF910895CF93DF93CDB7DEB78CE00E9425
S1134F903A270000DF91CF910895CF93DF93CDB7E7
S1134FA0DEB78DE00E943A270000DF91CF9108958B
S1134FB0CF93DF93CDB7DEB78EE00E943A2700008F
S1134FC0DF91CF910895CF93DF93CDB7DEB786E11C
S1134FD00E943A270000DF91CF910895CF93DF9389
S1134FE000D0CDB7DEB79A83898389819A81BC01C9
S1134FF082E10E941F2700000F900F90DF91CF9154
S11350000895CF93DF93CDB7DEB782E40E943A27A9
S11350100000DF91CF910895CF93DF93CDB7DEB732
S113502083E40E943A270000DF91CF910895CF9343
S1135030DF93CDB7DEB787E40E943A270000DF9103
S1135040CF910895CF93DF93CDB7DEB788E40E9464
S11350503A270000DF91CF910895CF93DF93CDB726
S1135060DEB789E40E943A270000DF91CF910895CA
S1135070CF93DF93CDB7DEB78CE40E943A270000CC
S1135080DF91CF910895CF93DF93CDB7DEB78BE453
S11350900E943A270000DF91CF910895CF93DF93C8
S11350A0CDB7DEB78DE40E943A270000DF91CF919F
S11350B00895CF93DF93CDB7DEB7F89481E0DF9105
S11350C0CF910895CF93DF9300D0CDB7DEB79A8305
S11350D089838FE590E029813A81F9012081FC01DF
S11350E0208300000F900F90DF91CF910895CF930C
S11350F0DF93CDB7DEB78EE490E02EE430E0F90123
S113510030812091F001232BFC0120830000DF91EA
S1135110CF910895CF93DF93CDB7DEB78EE490E0BF
S11351202EE430E0F90120812A7FFC012083000075
S1135130DF91CF910895CF93DF93CDB7DEB78CE4A1
S113514090E0FC01118210820000DF91CF9108955C
S11351502F923F924F925F926F927F928F929F9283
S1135160AF92BF92CF92DF92EF92FF920F931F9371
S1135170CF93DF93CDB7DEB72C970FB6F894DEBF8D
S11351800FBECDBF69877A878B879C87198280EC95
S11351908A8388EA8B831C821D821E821F82188662
S11351A089859A85AB85BC851C012D01BB0F880BB5
S11351B0982FDC01682E782E882E982EA22CB32CE2
S11351C0C42CD52CE62CF72C082D192D29813A81D5
S11351D04B815C816D817E818F8198850E943E2EFA
S11351E0A22EB32EC42ED52EE62EF72E082F192F5D
S11351F0A982BA82CB82DC82ED82FE820F83188779
S113520029803A804B805C806D807E808F8098847A
S11352106894AA24A7F80F2EF4E8BF2EF02D0F2EC1
S1135220FEE1CF2EF02DD12CE12CF12C00E010E08A
S1135230222D332D442D552D662D772D882D992D16
S11352400E94992EA22EB32EC42ED52EE62EF72E12
S1135250082F192F2A2D3B2D4C2D5D2D6E2D7F2DC2
S1135260802F912F29833A834B835C836D837E83C4
S11352708F839887A980BA80CB80DC80ED80FE8004
S11352800F8118852A2D3B2D4C2D5D2D6E2D7F2DE4
S1135290802F912F2E3F3F4F410551056105710528
S11352A08105910509F024F481E08093F001F1C0B7
S11352B029813A814B815C816D817E818F819885C2
S11352C003E00E94F62EA22EB32EC42ED52EE62E77
S11352D0F72E082F192FA982BA82CB82DC82ED82A5
S11352E0FE820F831887A980BA80CB80DC80ED8092
S11352F0FE800F8118852A2D3B2D4C2D5D2D6E2DA2
S11353007F2D802F912F2E3F3F4F41055105610581
S113531071058105910509F024F482E08093F00180
S1135320B8C029813A814B815C816D817E818F81F6
S1135330988503E00E94F62EA22EB32EC42ED52EFD
S1135340E62EF72E082F192FA982BA82CB82DC828F
S1135350ED82FE820F831887A980BA80CB80DC801F
S1135360ED80FE800F8118852A2D3B2D4C2D5D2D5F
S11353706E2D7F2D802F912F2E3F3F4F41055105DC
S1135380610571058105910509F024F483E080939A
S1135390F0017FC029813A814B815C816D817E81DE
S11353A08F81988502E00E94F62EA22EB32EC42E81
S11353B0D52EE62EF72E082F192FA982BA82CB827A
S11353C0DC82ED82FE820F831887A980BA80CB80AD
S11353D0DC80ED80FE800F8118852A2D3B2D4C2D1D
S11353E05D2D6E2D7F2D802F912F2E3F3F4F410538
S11353F05105610571058105910509F024F484E0E6
S11354008093F00146C029813A814B815C816D8192
S11354107E818F81988502E00E94F62EA22EB32E03
S1135420C42ED52EE62EF72E082F192FA982BA8264
S1135430CB82DC82ED82FE820F831887A980BA803A
S1135440CB80DC80ED80FE800F8118852A2D3B2DDA
S11354504C2D5D2D6E2D7F2D802F912F2E3F3F4F94
S113546041055105610571058105910509F024F493
S113547085E08093F0010DC085E08093F0018FEF0B
S113548089838FEF8A831B821C821D821E821F8266
S1135490188689819A819093F2018093F10186E4C0
S11354A090E02091F1013091F201FC0131832083DD
S11354B00E948A2800002C960FB6F894DEBF0FBE17
S11354C0CDBFDF91CF911F910F91FF90EF90DF90AF
S11354D0CF90BF90AF909F908F907F906F905F9090
S11354E04F903F902F900895CF93DF9300D000D03A
S11354F0CDB7DEB769837A838B839C838FE490E096
S1135500FC0110828EE490E020E1FC01208389817B
S11355109A81AB81BC81BC01CD010E94A828000006
S11355200F900F900F900F90DF91CF910895CF932C
S1135530DF93CDB7DEB727970FB6F894DEBF0FBE63
S1135540CDBF8D837F836E834091F1015091F20131
S11355502E813F81429FC001439F900D529F900D29
S11355601124CC01A0E0B0E089839A83AB83BC838F
S113557089819A81AB81BC81072E7AE0B695A79583
S1135580979587957A95D1F7702D89839A83AB8304
S1135590BC838D81882F90E0009719F0019749F022
S11355A010C08AE490E029813A81FC013183208390
S11355B008C088E490E029813A81FC01318320838A
S11355C00000000027960FB6F894DEBF0FBECDBFD3
S11355D0DF91CF910895CF93DF93CDB7DEB72797AF
S11355E00FB6F894DEBF0FBECDBF89837B836A8379
S11355F02C833D834E835F838C819D81AE81BF81EB
S1135600181619061A061B0644F48C819D81AE8176
S1135610BF81BC01CD010E94A8288981882F90E018
S1135620009719F00197A1F026C081E390E021E3EF
S113563030E0F90120812062FC0120838FE490E0B6
S11356402FE430E0F90120812068FC01208313C09D
S113565081E390E021E330E0F90120812061FC0145
S113566020838FE490E02FE430E0F9012081206270
S1135670FC01208300008A819B81BC0189810E94F6
S1135680972A0E947728000027960FB6F894DEBF69
S11356900FBECDBFDF91CF910895CF93DF931F92BB
S11356A0CDB7DEB789838981882F90E0009719F000
S11356B0019759F014C08FE490E02FE430E0F90131
S11356C020812F77FC0120830AC08FE490E02FE42F
S11356D030E0F90120812F7DFC01208300000000CF
S11356E00F90DF91CF910895CF93DF93CDB7DEB7BD
S11356F089E590E029E530E0F90120812460FC018E
S113570020830E9477280000DF91CF910895CF93E2
S1135710DF93CDB7DEB789E590E029E530E0F90104
S113572020812B7FFC0120830000DF91CF9108951D
S1135730CF93DF9300D000D0CDB7DEB79A838983AF
S11357407C836B8389819A819093F4018093F30124
S11357508B819C819093F6018093F50100000F905A
S11357600F900F900F90DF91CF910895CF93DF9317
S113577000D000D0CDB7DEB79C838B838FE590E05B
S1135780FC0180818A830E945928898307C08B8108
S11357909C819093F6018093F50119828981882375
S11357A0B1F7CE0102960E94622800000F900F907C
S11357B00F900F90DF91CF9108951F920F92009058
S11357C05F000F9211242F933F934F935F936F9336
S11357D07F938F939F93AF93BF93EF93FF93CF9355
S11357E0DF93CDB7DEB78091F3019091F401892B5B
S11357F051F02091F3013091F4018091F5019091E1
S1135800F601F90109950000DF91CF91FF91EF9125
S1135810BF91AF919F918F917F916F915F914F91C4
S11358203F912F910F9000925F000F901F90189559
S11358300E94BE2C08F481E008950E94312C0C943F
S1135840F92C0E94F22C58F00E94EB2C40F029F421
S11358505F3F29F00C94E22C51110C942D2D0C94E3
S1135860E82C0E940A2D68F39923B1F3552391F390
S1135870951B550BBB27AA2762177307840738F0BB
S11358809F5F5F4F220F331F441FAA1FA9F335D018
S11358900E2E3AF0E0E832D091505040E695001CCC
S11358A0CAF72BD0FE2F29D0660F771F881FBB1F86
S11358B0261737074807AB07B0E809F0BB0B802D64
S11358C0BF01FF2793585F4F3AF09E3F510578F090
S11358D00C94E22C0C942D2D5F3FE4F3983ED4F30A
S11358E0869577956795B795F7959F5FC9F7880F64
S11358F0911D9695879597F90895E1E0660F771FB6
S1135900881FBB1F621773078407BA0720F0621B46
S1135910730B840BBA0BEE1F88F7E09508950E9471
S1135920122D88F09F5798F0B92F9927B751B0F0EE
S1135930E1F0660F771F881F991F1AF0BA95C9F70F
S113594014C0B13091F00E942C2DB1E008950C9454
S11359502C2D672F782F8827B85F39F0B93FCCF307
S1135960869577956795B395D9F73EF4909580958C
S1135970709561957F4F8F4F9F4F0895990F000841
S1135980550FAA0BE0E8FEEF16161706E807F9070D
S1135990C0F012161306E407F50798F0621B730BA8
S11359A0840B950B39F40A2661F0232B242B252B29
S11359B021F408950A2609F4A140A6958FEF811DCC
S11359C0811D089597F99F6780E870E060E008956D
S11359D09FEF80EC089500240A9416161706180603
S11359E00906089500240A941216130614060506DF
S11359F00895092E0394000C11F4882352F0BB0F70
S1135A0040F4BF2B11F460FF04C06F5F7F4F8F4FD2
S1135A109F4F089557FD9058440F551F59F05F3F0D
S1135A2071F04795880F97FB991F61F09F3F79F0BC
S1135A3087950895121613061406551FF2CF46953E
S1135A40F1DF08C0161617061806991FF1CF8695C0
S1135A507105610508940895E894BB2766277727A4
S1135A60CB0197F908950E94BE2C08F48FEF089596
S1135A700E944B2D0C94F92C0E94EB2C38F00E94C0
S1135A80F22C20F0952311F00C94E22C0C94E82CC9
S1135A9011240C942D2D0E940A2D70F3959FC1F3AF
S1135AA0950F50E0551F629FF001729FBB27F00DC8
S1135AB0B11D639FAA27F00DB11DAA1F649F66271D
S1135AC0B00DA11D661F829F2227B00DA11D621F6C
S1135AD0739FB00DA11D621F839FA00D611D221F26
S1135AE0749F3327A00D611D231F849F600D211D0A
S1135AF0822F762F6A2F11249F5750409AF0F1F08D
S1135B0088234AF0EE0FFF1FBB1F661F771F881FF5
S1135B1091505040A9F79E3F510580F00C94E22C1F
S1135B200C942D2D5F3FE4F3983ED4F3869577953E
S1135B306795B795F795E7959F5FC1F7FE2B880F9B
S1135B40911D9695879597F90895DB018F939F93FF
S1135B500E94332EBF91AF91A29F800D911DA39FF0
S1135B60900DB29F900D11240895AA1BBB1B51E107
S1135B7007C0AA1FBB1FA617B70710F0A61BB70BB9
S1135B80881F991F5A95A9F780959095BC01CD015E
S1135B90089597FB072E16F4009407D077FD09D0DB
S1135BA00E94B52D07FC05D03EF4909581959F4F3A
S1135BB00895709561957F4F0895A1E21A2EAA1B4E
S1135BC0BB1BFD010DC0AA1FBB1FEE1FFF1FA217A9
S1135BD0B307E407F50720F0A21BB30BE40BF50BA6
S1135BE0661F771F881F991F1A9469F7609570952F
S1135BF0809590959B01AC01BD01CF010895052EC0
S1135C0097FB1EF400940E94162E57FD07D00E94A5
S1135C10DD2D07FC03D04EF40C94162E50954095C0
S1135C20309521953F4F4F4F5F4F08959095809544
S1135C30709561957F4F8F4F9F4F0895EE0FFF1F13
S1135C400590F491E02D0994A29FB001B39FC00187
S1135C50A39F700D811D1124911DB29F700D811D94
S1135C601124911D08950E94242EA59F900DB49F88
S1135C70900DA49F800D911D11240895DF93CF935F
S1135C801F930F939A9DF02D219FF00D8B9DF00D86
S1135C908A9DE02DF10D039FF00D029FE00DF11D93
S1135CA04E9DE00DF11D5E9DF00D4F9DF00D7F9317
S1135CB06F93BF92AF925F934F93D5010E94242EAE
S1135CC08B01AC01D7010E94242EEB01E80FF91FD0
S1135CD0D6010E948E2E2F913F91D6010E94242E30
S1135CE0C60FD71FE81FF91FAF91BF910E948E2ED8
