S01700006B6D436F6C6F724465746563746F722E73726563FC
S11300000C9490000C94E6040C9413050C94AD002D
S11300100C94F70A0C94AD000C94AD000C94AD0054
S11300200C94AD000C94EE0B0C94AD000C94AD004C
S11300300C94AD000C94E3080C9407090C94AD00E7
S11300400C94AD000C94AD000C94AD000C94AD0078
S11300500C94AD00FF030204050408040B040E0411
S1130060110414048104840487048A048D04900414
S1130070930496044D6561737572652053746172BF
S113008074004D65617375726520537461727400F8
S113009056657273696F6E203A20006B6D436F6C06
S11300A06F724465746563746F722052454144599C
S11300B0006F72616E67650062726F776E007965BA
S11300C06C6C6F770072656400677265656E0062C0
S11300D06C756500626C61636B00776869746500B8
S11300E03A200043006F72616E67650062726F7739
S11300F06E0079656C6C6F77007265640067726579
S1130100656E00626C756500626C61636B00776894
S1130110697465001B5B48001B5B324A000D0A00D2
S113012011241FBECFE5D8E0DEBFCDBF10E0A0E6AE
S1130130B0E0EEEBF0E202C005900D92AA3FB107E9
S1130140D9F721E0AAEFB0E001C01D92A53CB207A7
S1130150E1F70E947A060C945D100C940000CF9392
S1130160DF93EB010E94770384EF91E09983888306
S1130170DF91CF910895CF93DF93EB010E94AE01FD
S11301800E94BC01811104C084E190E099838883BA
S1130190DF91CF9108950E9484030E942A0464E1B0
S11301A070E081E00C940C0A1F93CF93DF93CDB7DA
S11301B0DEB72C970FB6F894DEBF0FBECDBF0E94FA
S11301C06E030E9474038AE090E00E94DB0A0E949E
S11301D0140780E00E94910160E875E280E090E0FD
S11301E00E9468080E94DB080E94DF088BE990E007
S11301F00E94D70880E990E00E94C0088FE890E050
S11302000E94D30840E062E080E10E9440050E9421
S113021021060E945A0560E080E00E94AA0584E855
S113022090E00E94FF050E942B090E947909F42F97
S1130230E52FCB012F833887F987EA876B879C8763
S1130240A9016F2F7E2F0E94C2010E949A09F42FE8
S1130250E52FCB0129833A83FB83EC836D839E8353
S1130260A9016F2F7E2F0E94E1010E94BB09182F64
S11302700E947609612F0E9400024FEA50E067E075
S113028070E080E00E94FD0964EF71E080E00E946C
S11302900C0A4BEB50E060E070E081E00E94FD0945
S11302A064E170E081E00E940C0A60E070E08BEC95
S11302B090E00E94690778942C960FB6F894DEBFFC
S11302C00FBECDBFDF91CF911F9108950E94BE094B
S11302D00E94FC060E94BC01882399F00E94BF0181
S11302E086E00E94770361E080E00E94AA0582E82C
S11302F090E00E94120684E790E00E94D7080C94D4
S11303003607089583B390E00090FC0002C09595F1
S113031087950A94E2F78170992721E082278170FA
S113032008958093FC001092FB001092FA0094B39D
S113033021E030E0A90101C0440F8A95EAF7842F37
S11303408095892384BB85B30090FC0002C0220FF2
S1130350331F0A94E2F7282B25BB08950E948201DB
S11303609091FB00891739F0811103C091E09093BB
S1130370FA008093FB0008958091FA00089510928A
S1130380FA000895CF93DF9300D000D000D0CDB70A
S1130390DEB749835A836B837C838D839E8386E097
S11303A0FE013196A6E0B1E001900D928A95E1F745
S11303B026960FB6F894DEBF0FBECDBFDF91CF9166
S11303C00895CF93DF9300D000D000D0CDB7DEB72F
S11303D049835A836B837C838D839E8386E0FE01ED
S11303E03196A0E0B1E001900D928A95E1F726964E
S11303F00FB6F894DEBF0FBECDBFDF91CF91089545
S11304009093FF008093FE006093FD000895CF93C6
S1130410DF93EB01FA01A0E0B0E09C01AD01261BE3
S1130420370B41095109A0EEB0E00E94A80C9F01CE
S11304302C1B3D0B40E050E00E94650CDA01C90121
S11304404096A11DB11DB7FF03C080E090E0DC0120
S11304508F3F9105A105B10529F024F08FEF90E0BD
S1130460A0E0B0E0DF91CF910895CF92DF92EF92B8
S1130470FF92E62FF0E0E21BF109F7FF03C0F195CC
S1130480E195F109A72FB0E0A31BB109B7FF03C0A1
S1130490B195A195B10990E09C01241B3109A901F2
S11304A037FF03C05195419551099D010E948A0C63
S11304B06B017C019A01DA010E948A0CC60ED71ED8
S11304C0E81EF91E9F01DF010E948A0C6C0D7D1D40
S11304D08E1D9F1DFF90EF90DF90CF9008956F9237
S11304E07F928F92BF92CF92DF92EF92FF920F93FF
S11304F01F93CF93DF933B01882EB090FD000091B2
S1130500FE001091FF00C0E0D0E0CC24CA94DC2CA3
S11305107601CB15A1F0F801208131814281882D2B
S1130520B3010E9435026C157D058E059F0518F4F4
S1130530DC2F6B017C01CF5F0D5F1F4FEACF8D2F46
S1130540DF91CF911F910F91FF90EF90DF90CF90AB
S1130550BF908F907F906F900895CF92DF92EF922B
S1130560FF920F931F93CF93DF9300D000D000D05E
S1130570CDB7DEB749835A836B837C838D839E8397
S113058080E0E82E81E0F82EF7014081518106E0F9
S113059011E0F8016081718189819A810E940702CA
S11305A0C82EF70142815381F801628173818B81E6
S11305B09C810E940702D82EF70144815581F801DD
S11305C0648175818D819E810E940702B601269601
S11305D00FB6F894DEBF0FBECDBFDF91CF911F9150
S11305E00F91FF90EF90DF90CF9008958F929F929C
S11305F0AF92BF92EF92FF920F931F93CF93DF932B
S1130600F62EE72ED82F671720F4681728F4862FC4
S113061003C0781708F4872FCD2FEF1420F4DF15CB
S113062028F4CF2D03C0DE1508F4CE2DC11104C06B
S113063060E070E080E047C00C2F10E0081B110957
S11306402FEF30E0D8010E94A10C8C2E912CA12C0C
S1130650B12CA50194010E94650C211103C060E036
S113066070E030C0CF110EC04E2D50E04D1B51092B
S11306703BE2349FC001359F900D1124B8010E94C4
S11306802F0C1FC06F2D70E0CE110FC04D2F50E006
S1130690461B570B3BE2349FC001359F900D11243C
S11306A0B8010E942F0C6B5A0CC06E1971093BE201
S11306B0369FC001379F900D1124B8010E942F0C62
S11306C06555722F8C2FDF91CF911F910F91FF9061
S11306D0EF90BF90AF909F908F9008958FEF8BBB5A
S11306E088BB85BB82BB0895A69AA79A08958630D5
S11306F019F0873029F0089595B380E4892702C062
S113070085B3805885BB08959F92AF92BF92CF92D4
S1130710DF92EF92FF920F931F93CF93DF93CDB7A6
S1130720DEB7AE970FB6F894DEBF0FBECDBF0E9402
S11307304807F42FE52FCB0129A73AA7FBA7ECA77D
S11307406DA79EA7A9016F2F7E2F0E94AD02062FD1
S1130750D72EC82E0E94F6025B01982E602F7D2DA5
S11307608C2D0E946F02182F8EA58F938DA58F93C9
S11307708CA58F938BA58F938AA58F9389A58F932F
S113078085E990E09F938F93CE0101967C019F931E
S11307908F930E94730DC7010E94B4081F92CF92D9
S11307A01F92DF921F920F9381EB90E09F938F93A0
S11307B0FF92EF920E94730DC7010E94B4081F922A
S11307C09F921F92AF921F92BF928EEC90E09F93E4
S11307D08F93FF92EF920E94730DC7010E94B40899
S11307E00FB6F894DEBF0FBECDBF812F90E08830E6
S11307F09105F0F4FC01E65DFF4F0C94840C8EE04F
S113080091E014C088E091E011C083E091E00EC053
S11308108DEF90E00BC089EF90E008C082EF90E08C
S113082005C08CEE90E002C085EE90E00E94D708EF
S1130830AE960FB6F894DEBF0FBECDBFDF91CF9159
S11308401F910F91FF90EF90DF90CF90BF90AF90EA
S11308509F900895EF92FF920F931F93CF93DF938E
S1130860CDB7DEB7AE970FB6F894DEBF0FBECDBFDF
S11308700E944807F42FE52FCB01A9016F2F7E2F8B
S11308800E94AD02F62EE72E082F0E946F02182F49
S11308901F920F931F92EF921F92FF928AEE90E0A5
S11308A09F938F93CE0101967C019F938F930E9417
S11308B0730D60E080E00E94AA05C7010E94FF0555
S11308C00E94E80561E080E00E94AA0583EE90E0C2
S11308D00E94120680E3810F0E94DF0580EE90E003
S11308E00E9412060FB6F894DEBF0FBECDBF812F53
S11308F090E088309105F0F4FC01EE5CFF4F0C941D
S1130900840C8AED90E014C084ED90E011C08FEC6B
S113091090E00EC089EC90E00BC085EC90E008C03C
S11309208EEB90E005C088EB90E002C081EB90E094
S11309300E9412060E94E805AE960FB6F894DEBF38
S11309400FBECDBFDF91CF911F910F91FF90EF901C
S11309500895882319F08130D9F008953093130154
S1130960209312018A98442311F0929A01C092981C
S113097085B78C7F85BF85B7623031F0633031F045
S11309806130F9F481601DC082601BC0836019C0AE
S113099030931101209310018B98442311F0939A02
S11309A001C0939885B7837F85BF85B7623031F0E6
S11309B0633031F0613029F4846003C0886001C081
S11309C08C6085BF8BB780648BBF08951F920F9294
S11309D00FB60F9211242F933F934F935F936F930E
S11309E07F938F939F93AF93BF93EF93FF93E09184
S11309F01201F0911301309729F080910E0190912A
S1130A000F010995FF91EF91BF91AF919F918F9144
S1130A107F916F915F914F913F912F910F900FBEF6
S1130A200F901F9018951F920F920FB60F921124DA
S1130A302F933F934F935F936F937F938F939F93E2
S1130A40AF93BF93EF93FF93E0911001F0911101E5
S1130A50309729F080910C0190910D010995FF9137
S1130A60EF91BF91AF919F918F917F916F915F9122
S1130A704F913F912F910F900FBE0F901F9018959B
S1130A8080931801609317014093160180E88093C6
S1130A90150110921B0110921A0110921901089568
S1130AA0982F907F96958F70892B90911501892BA3
S1130AB08BBB089580E88093150180E00C94500569
S1130AC0CF93C82F84600E94500581EC90E0019779
S1130AD0F1F700C08C2F8B7F0E94500594E09A950B
S1130AE0F1F7CF910895CF93DF93C82FD62F807F4E
S1130AF0862B0E94600520E1C29FC00111248D2B2A
S1130B00DF91CF910C94600560E00C94730581E053
S1130B100E948405809118018093140189E995E16C
S1130B200197F1F700C0089582E00E948405809146
S1130B3018018093140189E995E10197F1F700C048
S1130B40089580911A01982F946090931A018C60F3
S1130B500C9484051F93CF93DF93CDB7DEB728970A
S1130B600FB6F894DEBF0FBECDBF182F88E0E1E6C4
S1130B70F0E0DE01119601900D928A95E1F78091E3
S1130B801701861710F46FEF680FFE013196E60F18
S1130B90F11DE60FF11D8081810F80680E9484059C
S1130BA080911801811B8093140128960FB6F89444
S1130BB0DEBF0FBECDBFDF91CF911F91089561E0DD
S1130BC00E9473058091140181508093140108954B
S1130BD00F931F93CF93DF93C091140100E010E0B3
S1130BE0D0E00C171D0734F480E20E94DF050F5F8C
S1130BF01F4FF7CFDF91CF911F910F9108950F935E
S1130C001F93CF938C01C0E0F801EC0FF11D80819C
S1130C10882321F0CF5F0E94DF05F6CFCF911F918B
S1130C200F910895CF93DF93FC018491EF012196F6
S1130C30882321F00E94DF05FE01F7CFDF91CF91D9
S1130C4008958FEF8ABB1BBA10921B018091170184
S1130C50823018F098E090931B019091160199232B
S1130C6039F0813029F480911B01846080931B0149
S1130C702FEF8FEA91E0215080409040E1F700C0CF
S1130C8000001092150180E00E9450058CEC9AE05F
S1130C900197F1F700C0000080E30E9460058CE535
S1130CA09DE20197F1F780E30E94600584E191E001
S1130CB00197F1F7000080E30E94600584E191E070
S1130CC00197F1F7000080E20E94600580911B010A
S1130CD080620E94840584E080931A010E94A10529
S1130CE00E94870582E08093190186E00E948405B2
S1130CF00C9494050E94D4000E946601FDCF80915B
S1130D002101909122010196909322018093210167
S1130D100895949895980895813041F028F0823090
S1130D2039F0833041F008950C948906949804C0F6
S1130D30949A95980895949A959A0895823069F0B2
S1130D4018F4813039F00895833049F0843049F43F
S1130D50969A01C0969897980895969A01C0969885
S1130D60979A08951F93CF93DF93182F882309F43C
S1130D703FC0EC018C2F0E949E06CE019927823041
S1130D809105D9F020F4019749F5939A27C083304F
S1130D909105E1F0049711F58091210190912201D0
S1130DA0909328018093270181E0809320019398F8
S1130DB080E090E00E94E50B11C0809121019091A8
S1130DC02201909324018093230108C08091210182
S1130DD0909122019093260180932501143021F0F3
S1130DE0CE0101960E94E50B10922201109221017E
S1130DF0DF91CF911F910895E0911E01F0911F01A1
S1130E00309789F080912001882369F010922001A5
S1130E1080911C0190911D0109950E943D0B0E9437
S1130E20410B0C94890608950F931F9381B3806F2F
S1130E3081BB8B9A93988A98929860E47DE083E0D2
S1130E4090E00E94D20B00E010E02FE736E040E093
S1130E5063E080E00E94A90460E070E082EB96E029
S1130E600E94DC0B1F910F910C94890681E090E0A5
S1130E700E94E50B82E00E948C060E94D70B0E9420
S1130E80410B0E94370B1092220110922101089508
S1130E90CF93DF9300D000D000D0CDB7DEB786E08B
S1130EA0E3E2F1E0DE01119601900D928A95E1F7FB
S1130EB029813A814B815C816D817E8180E090E063
S1130EC026960FB6F894DEBF0FBECDBFDF91CF914B
S1130ED0089570931D0160931C0190931F018093EA
S1130EE01E0108959091600098130AC02091430157
S1130EF0309144012F5F3F4F3093440120934301CD
S1130F00E0914701F0914801E75BFE4F80838091B7
S1130F10470190914801019664E170E00E942F0C12
S1130F209093480180934701809145019091460137
S1130F30019690934601809345010895E0912B0119
S1130F40F0912C01E15DFE4F808380912B01909103
S1130F502C01019664E170E00E942F0C90932C0107
S1130F6080932B018091290190912A0101969093FD
S1130F702A018093290108958091290190912A01E1
S1130F80892B39F180912D0190912E019C012F5FC5
S1130F903F4F30932E0120932D01FC01E15DFE4F64
S1130FA0208180912D0190912E0164E170E00E94D6
S1130FB02F0C90932E0180932D0180912901909103
S1130FC02A01019790932A0180932901822F90E0AE
S1130FD008958FEF9FEF08958091290190912A0140
S1130FE0181619063CF40E94BC07E0915F01F091C9
S1130FF060018083E0916301F091640180818370DA
S1131000806480838091290190912A01892B09F4BD
S113101055980895E0916301F0916401808182FD07
S113102015C0E0915F01F09160018081409145011C
S11310305091460124E130E0241B350B12161306AF
S113104014F40C94720781E080935D0108950F936A
S11310501F93CF938B019C01C42F8BE290E090935C
S11310606401809363018AE290E09093620180932B
S113107061018CE290E09093600180935F01109293
S11310805E0160E070E38AE290E0A90198010E94A9
S1131090430CDA01C9010197A109B109AC01BD01F1
S11310A07695679557954795CA014115504120F0AB
S11310B096958795599801C0599A90BD89B9C06889
S11310C0C0BD8AB188698AB9CF911F910F910895E3
S11310D046E00C942708CF93DF93C82F81E08093D8
S11310E05E018091290190912A01892B31F5E091CB
S11310F06301F0916401808185FF1FC09FB7F8945C
S1131100E0915F01F0916001C083E0916301F0918F
S1131110640180818370806480839FBF20C080913C
S1131120290190912A01449769F40FB607FCF7CF7F
S1131130808185FFF4CF0E94EC07E0916301F09178
S11311406401EDCFDFB7F8948C2F0E949E07E091E5
S11311506101F0916201808180628083DFBF81E060
S113116090E0DF91CF910895CF93DF93EC018991C3
S1131170882319F00E946B08FACFDF91CF9108956C
S1131180CF93DF93FC018491EF012196882321F012
S11311900E946B08FE01F7CFDF91CF9108958DE196
S11311A091E00C94C0080E94B4080C94CF080E94EB
S11311B0C0080C94CF0888E191E00C94C00884E145
S11311C091E00C94C0081F920F920FB60F92112455
S11311D02F933F934F935F936F937F938F939F933B
S11311E0AF93BF93EF93FF930E940A08FF91EF918F
S11311F0BF91AF919F918F917F916F915F914F912B
S11312003F912F910F900FBE0F901F9018951F9232
S11312100F920FB60F9211242F933F934F935F9326
S11312206F937F938F939F93AF93BF93EF93FF93AA
S11312300E94EC07FF91EF91BF91AF919F918F9125
S11312407F916F915F914F913F912F910F900FBEBE
S11312500F901F901895CF93DF93C5E6D1E080E1FE
S11312608C8B86E0E9E6F0E0ADE6B1E001900D920A
S11312708A95E1F786E0EFE6F0E0A3E7B1E00190BC
S11312800D928A95E1F78091750090917600A09176
S113129077008D8B9E8BAF8B188E198E1A8E809152
S11312A0780090917900A0917A008B8F9C8FAD8FFC
S11312B080917B0090917C00A0917D008E8F9F8F08
S11312C0A8A380917E0090917F00A091800089A3C3
S11312D09AA3ABA38091810090918200A091830096
S11312E08CA39DA3AEA3DF91CF9108958AE791E0EB
S11312F00895CF93DF9300D000D000D0CDB7DEB7F0
S113130086E0EDE6F1E0DE01119601900D928A95FA
S1131310E1F729813A814B815C816D817E8180E096
S113132090E026960FB6F894DEBF0FBECDBFDF91D6
S1131330CF910895CF93DF9300D000D000D0CDB7E4
S1131340DEB786E0E3E7F1E0DE01119601900D924D
S11313508A95E1F729813A814B815C816D817E8197
S113136080E090E026960FB6F894DEBF0FBECDBFA6
S1131370DF91CF9108958091790108950F931F9380
S1131380CF93DF9300D0CDB7DEB700EB11E0D801E7
S11313908C91882329F111968D919C911297892B18
S11313A0F9F41A8219821396ED91FC911497BE01F7
S11313B06F5F7F4F15968D919C9116970995898142
S11313C09A81009711F4F80110826091AE01709136
S11313D0AF010E941B0CD80112967C936E93119757
S11313E0095F1F4FB1E00E3B1B0789F60F900F906A
S11313F0DF91CF911F910F91089527E0829FC00143
S11314001124FC01E055FE4F108212821182548394
S1131410438376836583089527E0829FC001112466
S1131420FC01E055FE4F81E080832091AE013091B4
S1131430AF01CB01B9010E941B0C72836183089533
S11314407F928F929F92AF92BF92CF92DF92EF9250
S1131450FF920F931F93CF93DF9320E030EC48EA81
S113146050E00E94B30CE8EEAE2EF3E0BF2EC12C88
S1131470D12CE12CF12C00E010E00E94EF0CE32EC3
S1131480F42E152FD62FC72FB82FA92FE22F2E3FBA
S1131490310541055105610571058105910509F085
S11314A008F464C003E00E944C0D2E3F3105410551
S11314B05105610571058105910509F00CF458C0C9
S11314C002E00E944C0D2E3F310541055105610596
S11314D071058105910509F00CF44DC001E00E94ED
S11314E04C0D2E3F310541055105610571058105FE
S11314F0910509F00CF442C001E00E944C0D2E3F0E
S11315003105410551056105710581059105C9F153
S1131510C4F101E00E944C0D2E3F310541055105F7
S1131520610571058105910579F174F102E00E946C
S11315304C0D2E3F310541055105610571058105AD
S1131540910529F124F12E2F3E2D4F2D512F6D2F72
S11315507C2F8B2F9A2F08E00E944C0DE22F0E94C3
S11315604C0D3093AD012093AC010FC081E011C04C
S1131570E22F82E00EC0E22F83E00BC0E22F84E072
S113158008C0E22F85E005C0E22F86E002C0E22F0A
S113159087E0E3BD95B5892B85BDDF91CF911F9180
S11315A00F91FF90EF90DF90CF90BF90AF909F90FE
S11315B08F907F900895BC019093AF018093AE010A
S11315C0E0EBF1E0108214821382128211821782FE
S11315D0138612861186108685B5886085BD80E8DD
S11315E089BF072E000C880B990B0C94200A1F92BC
S11315F00F920FB60F9211248F939F938091AA019B
S11316009091AB01892B19F58091B001882359F091
S11316108091B1019091B201009729F001979093C4
S1131620B2018093B1018091B701882359F0809170
S1131630B8019091B901009729F001979093B901ED
S11316408093B8018091AC019091AD0105C0809167
S1131650AA019091AB0101979093AB018093AA01E9
S11316609F918F910F900FBE0F901F9018959EB56C
S11316708091C401892B8EBD08958EB58A7F8EBD5D
S113168008951DBC1CBC0895AF92BF92CF92DF9207
S1131690EF92FF920F931F93CF93DF9320E030ECF0
S11316A048EA50E00E94B30CE0E8AE2EF4E8BF2E06
S11316B0AEE1CA2ED12CE12CF12C00E010E00E9406
S11316C0EF0CF22FE32F2E3FAFEF3A074105510500
S11316D0610571058105910509F010F481E011C0DF
S11316E003E00E944C0DF22FE32F2E3FAFEF3A0799
S11316F041055105610571058105910509F024F441
S113170082E08093C4013AC003E00E944C0DF22FA2
S1131710E32F2E3FAFEF3A074105510561057105EF
S11317208105910509F014F483E0EBCF02E00E94F7
S11317304C0DF22FE32F2E3FAFEF3A074105510531
S1131740610571058105910509F014F484E0D9CF90
S113175002E00E944C0DF22FE32F2E3F3F4F410534
S11317605105610571058105910509F014F485E0C1
S1131770C8CF85E08093C401FFEFEFEF8F2F9E2F3A
S11317809093C3018093C20197BD86BDDF91CF9131
S11317901F910F91FF90EF90DF90CF90BF90AF908B
S11317A00C943D0B1FBC20E12EBD0C94440B89B757
S11317B0846089BF0C94370B9093C1018093C0015E
S11317C07093BF016093BE0108959C019FB7F89484
S11317D03093BF012093BE019FBF08951F920F92C3
S11317E00FB60F9211242F933F934F935F936F93F0
S11317F07F938F939F93AF93BF93EF93FF93E09166
S1131800C001F091C101309729F08091BE019091FF
S1131810BF010995FF91EF91BF91AF919F918F9176
S11318207F916F915F914F913F912F910F900FBED8
S11318300F901F901895AA1BBB1B51E107C0AA1F4C
S1131840BB1FA617B70710F0A61BB70B881F991F5D
S11318505A95A9F780959095BC01CD01089597FB01
S1131860072E16F4009407D077FD09D00E941B0CB4
S113187007FC05D03EF4909581959F4F089570958F
S113188061957F4F0895A1E21A2EAA1BBB1BFD018F
S11318900DC0AA1FBB1FEE1FFF1FA217B307E4074B
S11318A0F50720F0A21BB30BE40BF50B661F771FA3
S11318B0881F991F1A9469F7609570958095909583
S11318C09B01AC01BD01CF010895052E97FB1EF4C9
S11318D000940E947C0C57FD07D00E94430C07FC27
S11318E003D04EF40C947C0C509540953095219582
S11318F03F4F4F4F5F4F0895909580957095619538
S11319007F4F8F4F9F4F0895EE0FFF1F0590F49167
S1131910E02D09940E94920C332312F48A1B9B0B32
S11319200C94A30CA29FB001B39FC001A39F700DA0
S1131930811D1124911DB29F700D811D1124911DD3
S113194008950E94920CB7FF0895821B930B08958B
S11319500E94920CA59F900DB49F900DA49F800DA2
S1131960911D1124089597FB57FF0C94C30C9F936A
S11319708F930E94C30C6E1B7F0BAF91BF918A0B98
S11319809B0B0895E894DF93CF93FC01DB010E9445
S1131990920C7F936F93E9019A01AC01BF93AF93CB
S11319A03F932F93DF010E94920C26F46C1B7D0B56
S11319B0820B930B9E01EB01FC010E946A0DAF9117
S11319C0BF912F913F910E946A0DBE01CF01F90191
S11319D02F913F91CF91DF910895689401C0E894CD
S11319E08F929F92CF93DF930E94FB0CDF91CF9154
S11319F09F908F90089588249924F401E401B0E421
S1131A009F93AA279A158B049C04ED05FE05CF0528
S1131A10D007A10798F4AD2FDC2FCF2FFE2FE92D8F
S1131A20982C892E982F872F762F652F542F432F8C
S1131A30322F2227B85031F7BF9127C01B2EBF91F8
S1131A40BB27220F331F441F551F661F771F881F94
S1131A50991F881C991CEE1FFF1FCC1FDD1FAA1F96
S1131A60BB1F8A149B04EC05FD05CE05DF05A0070A
S1131A70B10748F08A189B08EC09FD09CE09DF0973
S1131A80A00BB10B21601A94E1F62EF49401AF017E
S1131A90BE01CD01000C089597FB10F816940008C0
S1131AA00F93083098F00850232F342F452F562FCA
S1131AB0672F782F892F902DF4CF059497958795CC
S1131AC07795679557954795379527950A95AAF77A
S1131AD00F9108950E94920C460F571FC81FD91FDB
S1131AE008F431960895AEE0B0E0E9E7FDE00C9427
S1131AF034100D891E8986E08C831A8309838FEF45
S1131B009FE79E838D83AE01475E5F4F6F89788D1B
S1131B10CE0101960E94950DEF81F885E00FF11F2B
S1131B2010822E96E4E00C945010ABE0B0E0EBE9A8
S1131B30FDE00C9426106C017B018A01FC011782E4
S1131B401682838181FFCCC1CE0101963C01F6014E
S1131B509381F70193FD859193FF81917F01882300
S1131B6009F4BAC1853239F493FD859193FF8191CB
S1131B707F01853229F4B60190E00E948C0FE7CFF3
S1131B80912C212C312CFFE1F315D8F08B3279F014
S1131B9038F4803279F08332A1F4232D20611DC002
S1131BA08D3261F0803369F4232D216016C0832DBA
S1131BB08260382EE32DE4603E2E2AC0F32DF860B7
S1131BC01DC037FC2DC020ED280F2A3040F08E3286
S1131BD0B9F436FC81C1232D2064322E19C036FE9F
S1131BE006C08AE0989E200D1124922E11C0EAE0CE
S1131BF02E9E200D1124222EF32DF0623F2E08C0BC
S1131C008C3621F4832D8068382E02C0883641F446
S1131C10F70193FD859193FF81917F018111B3CFEA
S1131C20982F9F7D9554933028F40C5F1F4F9FE3AA
S1131C3099830DC0833631F0833771F0833509F011
S1131C4059C021C0F801808189830E5F1F4F882409
S1131C508394912C530113C02801F2E04F0E511CC0
S1131C60F801A080B18036FE03C0692D70E002C087
S1131C706FEF7FEFC5010E94810F4C018201F32DAC
S1131C80FF773F2E16C0280122E0420E511CF801B6
S1131C90A080B18036FE03C0692D70E002C06FEFF2
S1131CA07FEFC5010E94760F4C01F32DF0683F2EA3
S1131CB0820133FC1BC0822D90E088169906B0F493
S1131CC0B60180E290E00E948C0F2A94F4CFF501D3
S1131CD037FC859137FE81915F01B60190E00E9447
S1131CE08C0F21102A9421E0821A91088114910406
S1131CF071F7E8C0843611F0893641F5F80137FEF2
S1131D0007C060817181828193810C5F1F4F08C07D
S1131D1060817181072E000C880B990B0E5F1F4F99
S1131D20F32DFF763F2E97FF09C09095809570950F
S1131D3061957F4F8F4F9F4FF0683F2E2AE030E030
S1131D40A3010E94C80F882E861845C0853731F438
S1131D50232D2F7EB22E2AE030E025C0932D997FCB
S1131D60B92E8F36C1F018F4883579F0B5C08037B4
S1131D7019F0883721F0B0C0E92FE061BE2EB4FE1F
S1131D800DC0FB2DF460BF2E09C034FE0AC0292FFC
S1131D902660B22E06C028E030E005C020E130E025
S1131DA002C020E132E0F801B7FE07C06081718112
S1131DB0828193810C5F1F4F06C06081718180E036
S1131DC090E00E5F1F4FA3010E94C80F882E861853
S1131DD0FB2DFF773F2E36FE0DC0232D2E7FA22E26
S1131DE0891458F434FE0BC032FC09C0832D8E7E56
S1131DF0A82E05C0B82CA32C03C0B82C01C0B92C44
S1131E00A4FE0FC0FE01E80DF11D8081803321F492
S1131E109A2D997EA92E09C0A2FE06C0B394B3944C
S1131E2004C08A2D867809F0B394A3FC11C0A0FEE7
S1131E3006C0B21488F4280C922C9B180EC0B2145D
S1131E4060F4B60180E290E00E948C0FB394F7CF67
S1131E50B21418F42B1802C0982C212CA4FE10C024
S1131E60B60180E390E00E948C0FA2FE17C0A1FC93
S1131E7003C088E790E002C088E590E0B6010CC09A
S1131E808A2D867859F0A1FE02C08BE201C080E25F
S1131E90A7FC8DE2B60190E00E948C0F891438F4FF
S1131EA0B60180E390E00E948C0F9A94F7CF8A9455
S1131EB0F301E80DF11D8081B60190E00E948C0FC2
S1131EC08110F5CF222009F442CEB60180E290E0E1
S1131ED00E948C0F2A94F6CFF6018681978102C066
S1131EE08FEF9FEF2B96E2E10C944210FC010590DA
S1131EF0615070400110D8F7809590958E0F9F1F08
S1131F000895FC016150704001900110D8F780954C
S1131F1090958E0F9F1F08950F931F93CF93DF9378
S1131F20FB01238121FD03C08FEF9FEF2CC022FF13
S1131F3016C046815781248135814217530744F4E2
S1131F40A081B1819D012F5F3F4F318320838C930A
S1131F50268137812F5F3F4F3783268314C08B013F
S1131F60EC01FB010084F185E02D0995892BE1F654
S1131F70D80116968D919C911797019617969C936C
S1131F808E931697CE01DF91CF911F910F910895F3
S1131F90FA01AA27283051F1203181F1E8946F9396
S1131FA06E7F6E5F7F4F8F4F9F4FAF4FB1E03ED03C
S1131FB0B4E03CD0670F781F891F9A1FA11D680FDA
S1131FC0791F8A1F911DA11D6A0F711D811D911D0D
S1131FD0A11D20D009F468943F912AE0269F112482
S1131FE03019305D3193DEF6CF010895462F4770E6
S1131FF0405D4193B3E00FD0C9F7F6CF462F4F7041
S1132000405D4A3318F0495D31FD4052419302D09E
S1132010A9F7EACFB4E0A695979587957795679544
S1132020BA95C9F700976105710508959B01AC0144
S11320300A2E06945795479537952795BA95C9F76B
S1132040620F731F841F951FA01D08952F923F9246
S11320504F925F926F927F928F929F92AF92BF92B4
S1132060CF92DF92EF92FF920F931F93CF93DF9360
S1132070CDB7DEB7CA1BDB0B0FB6F894DEBF0FBEBD
S1132080CDBF09942A88398848885F846E847D840A
S11320908C849B84AA84B984C884DF80EE80FD800C
S11320A00C811B81AA81B981CE0FD11D0FB6F89482
S11120B0DEBF0FBECDBFED010895F894FFCF43
S11320BE0D0000400014005400D400B800D2007B80
S11320CE056E059306FFFFFF4060A0409050A030C0
S11320DE30FFFF506B6D436F6C4465634452203088
S11320EE2E392E3000636F6C6F724F726720523A26
S11320FE25582C20473A25582C20423A25583B2067
S113210E00636F6C6F724E6F726D20523A25582CAD
S113211E20473A25582C20423A25583B2000636F1D
S113212E6C6F7248535620483A25582C20533A2542
S113213E582C20563A25583B2000523A25582C4705
S10D214E3A25582C423A25580000A7
S9030000FC
